:020000040800F2
:1000000000280020851A0008151A00081B1A00088D
:10001000211A0008271A00082D1A00080000000005
:10002000000000000000000000000000331A00087B
:100030003F1A0008000000004B1A0008571A000879
:10004000CD1A0008CD1A0008CD1A0008CD1A0008F4
:10005000CD1A0008CD1A0008CD1A0008CD1A0008E4
:10006000CD1A0008CD1A0008CD1A0008CD1A0008D4
:10007000CD1A0008CD1A0008CD1A0008CD1A0008C4
:10008000CD1A0008CD1A0008CD1A0008CD1A0008B4
:10009000CD1A0008CD1A0008CD1A0008CD1A0008A4
:1000A000CD1A0008CD1A0008CD1A0008CD1A000894
:1000B000651A0008CD1A000800000000CD1A0008DB
:1000C000CD1A00080000000000000000CD1A000852
:1000D00000000000CD1A0008CD1A00080000000042
:1000E000CD1A0008CD1A0008CD1A00080000000043
:1000F0000000000000000000000000000000000000
:0C01000000000000000000005FF808F1A3
:10010C0010B5054C237833B9044B13B10448AFF345
:10011C0000800123237010BD54000020000000005B
:10012C00FC30000808B5034B1BB103490348AFF37F
:10013C00008008BD0000000058000020FC300008C2
:10014C0080B483B000AF7860044A7B68012142F828
:10015C00231000BF0C37BD4680BC704770000020D8
:10016C0080B582B000AF00237B6073E03D4A7B68B2
:10017C0052F823203C497B6841F823203B4A7B689A
:10018C0052F8232037497B6841F823200121384855
:10019C0001F082FF03461A46344B1A6002213448A0
:1001AC0001F07AFF03461A46304B5A60042130485E
:1001BC0001F072FF03461A462C4B9A60294A7B6861
:1001CC0052F8232029497B6851F823309A423ED1BA
:1001DC00244A7B6852F8232023497B6851F823304A
:1001EC009A4234D1214A7B6852F8232021497B68FA
:1001FC0051F823309A4216D01C4A7B6852F82320BF
:10020C001C497B6841F82320184A7B6852F823303C
:10021C00002B1CD17868FFF793FF174A7B68642189
:10022C0042F8231013E0144A7B6852F823305A1E0C
:10023C0011497B6841F823200F4A7B6852F8233020
:10024C00002B04DC0B4A7B68012142F823107B68ED
:10025C0001337B607B68022B88DD00BF00BF083751
:10026C00BD4680BD0C0000201800002000000020BE
:10027C00000C0140240000203000002080B483B02A
:10028C0000AF7860094A7B6852F82330012B06D105
:10029C00064A7B68002142F82310012300E000236A
:1002AC0018460C37BD4680BC704700BF700000205C
:1002BC0080B500AF954B1B78012B40F02481944BFB
:1002CC001B78032B62D801A252F823F0E902000834
:1002DC00F70200082D030008630300088C4B012271
:1002EC001A70642001F06CFA57E0012000F08AFFCC
:1002FC00884B1B68012B4BD1874B1B68013B864AF3
:10030C001360854B1B68002B06DC844B1B68824AF0
:10031C0013607F4B02221A70642001F051FA37E00F
:10032C00022000F06FFF7B4B1B68012B32D17A4B04
:10033C001B68013B784A1360774B1B68002B06DC6B
:10034C00774B1B68744A1360714B03221A7064203C
:10035C0001F036FA1EE0032000F054FF6D4B1B68D1
:10036C00012B19D16C4B1B68013B6B4A13606A4B18
:10037C001B68002B06DC6B4B1B68674A1360644BD5
:10038C0001221A70642001F01BFA05E000BF04E0A2
:10039C0000BF02E000BF00E000BF634B1B78032BE3
:1003AC0062D801A252F823F0C5030008D303000859
:1003BC00090400083F0400085B4B02221A706420F9
:1003CC0001F012FA57E0012000F078FF574B1B6840
:1003DC00012B4BD1564B1B68013B554A1360544BB8
:1003EC001B68002B06DC4D4B1B68514A13604E4BAF
:1003FC0002221A70642001F0F7F937E0022000F0B5
:10040C005DFF4A4B1B68012B32D1494B1B68013BEA
:10041C00474A1360464B1B68002B06DC404B1B689D
:10042C00434A1360404B03221A70642001F0DCF93C
:10043C001EE0032000F042FF3C4B1B68012B19D13E
:10044C003B4B1B68013B3A4A1360394B1B68002B32
:10045C0006DC344B1B68364A1360334B01221A708E
:10046C00642001F0C1F905E000BF04E000BF02E028
:10047C0000BF00E000BF2F4B1B78022B20D0022BBB
:10048C0031DC002B02D0012B07D02CE0294B0122B0
:10049C001A70012001F0BCF92AE0274B1B68012BD4
:1004AC0023D11D4B1B68224A12681146184601F0D5
:1004BC001DF8204B02221A70322001F0A9F914E029
:1004CC001D4B1B68012B12D1134B1B68184A126869
:1004DC001146184601F02EF8164B01221A703220E4
:1004EC0001F096F903E000BF02E000BF00E000BF9E
:1004FC000020FFF7C3FE0346002B04D0034B02225F
:10050C001A7000F01BF800BF80BD00BFB0000020C7
:10051C00AC00002080000020A8000020400000203B
:10052C00440000203C000020B8000020880000207F
:10053C00B4000020BD0000209000002080B500AF6A
:10054C00012208210F4801F0BEFD012210210D48A7
:10055C0001F0B9FD012220210A4801F0B4FD01226D
:10056C004021084801F0AFFD01228021054801F02F
:10057C00AAFD01224FF48071024801F0A4FD00BFD6
:10058C0080BD00BF000C014080B483B000AF244B91
:10059C001A68244B1B681A44234B1B689A421ADABC
:1005AC00214B1A681E4B1B68D21A1E4B1B68D31AA0
:1005BC007B607B68DA0F13445B101A46194B1B687F
:1005CC001344184A1360184B1A68164B1B68D31A3D
:1005DC00134A13600FE0124B1A68124B1B681A4433
:1005EC00114B1B689A4206DD0D4B1A680D4B1B68AC
:1005FC0013440D4A13600A4B1A680A4B1B689A4243
:10060C0009DD084B1B683B60054B1B68054A1360F2
:10061C00034A3B68136000BF0C37BD4680BC704773
:10062C0044000020400000203C00002080B500AFBA
:10063C00494B1B78002B02D0012B07D011E0464B05
:10064C0001221A70192001F0F7F80AE0434B1B68DD
:10065C00012B05D1012000F091FE192001F0ECF8DE
:10066C0000BF3F4B1B78002B02D0012B13D038E07E
:10067C003C4B1B683C4A13600120FFF7FFFD03460F
:10068C00012B2BD1364B01221A70374B1B680133CF
:10069C00354A136022E00120FFF7F0FD0346012BE1
:1006AC000BD1314B1B6801332F4A13602E4B1B6847
:1006BC00622B02DD2C4B01221A600220FFF7DEFDBB
:1006CC000346012B0CD1284B1B68264A1360264B82
:1006DC0000221A60254B03221A7001E000BF00E0D3
:1006EC0000BF234B1B78022B1ED0022B2DDC002BC2
:1006FC0002D0012B07D028E01D4B01221A701920C3
:10070C0001F0AEF826E01B4B1B68012B1FD1164BDA
:10071C001B681946012000F0E9FE154B02221A70E5
:10072C00192001F09DF812E0124B1B68012B10D11F
:10073C000D4B1B681946002000F0FCFE192001F03F
:10074C008FF80B4B01221A7003E000BF02E000BFD0
:10075C0000E000BF00BF80BDBA0000209800002060
:10076C00BC0000203C0000207C000020B0000020D9
:10077C00B1000020A000002080B500AF494B1B78D1
:10078C00002B02D0012B07D011E0464B01221A702E
:10079C00192001F051F80AE0434B1B68012B05D1DD
:1007AC00032000F0EBFD192001F046F800BF3F4B91
:1007BC001B78002B02D0012B16D038E03C4B1B6869
:1007CC003C4A13600120FFF759FD0346012B07D16A
:1007DC00364B01221A70374B1B680133354A1360B4
:1007EC00324B01221A7022E00120FFF747FD03462D
:1007FC00012B0BD12F4B1B6801332E4A13602D4B51
:10080C001B68622B02DD2B4B01221A600220FFF7C2
:10081C0035FD0346012B09D1264B1B68244A136076
:10082C00244B00221A60244B04221A7000BF234B65
:10083C001B78022B1ED0022B2DDC002B02D0012B9F
:10084C0007D028E01D4B01221A70192001F008F87E
:10085C0026E01B4B1B68012B1FD1164B1B6819463E
:10086C00012000F043FE154B02221A70192000F0F3
:10087C00F7FF12E0124B1B68012B10D10D4B1B68BC
:10088C001946002000F056FE192000F0E9FF0B4B32
:10089C0001221A7003E000BF02E000BF00E000BFBD
:1008AC0000BF80BDB200002098000020BB000020DB
:1008BC00440000207C000020B0000020AE0000208E
:1008CC00A000002080B500AF4A4B1B78002B02D053
:1008DC00012B07D011E0474B01221A70192000F0B0
:1008EC00ABFF0AE0444B1B68012B05D1022000F042
:1008FC0045FD192000F0A0FF00BF404B1B78002BDA
:10090C0002D0012B13D039E03D4B1B683D4A1360DC
:10091C000120FFF7B3FC0346012B2CD1374B0122EE
:10092C001A70384B1B680133364A136023E00120E0
:10093C00FFF7A4FC0346012B0BD1324B1B68013390
:10094C00304A13602F4B1B68622B02DD2D4B0122AA
:10095C001A600220FFF792FC0346012B0DD1294BA4
:10096C001B68274A1360FFF70FFE274B01221A70F2
:10097C0000F090F801E000BF00E000BF234B1B78B3
:10098C00022B1ED0022B2DDC002B02D0012B07D00A
:10099C0028E01E4B01221A70192000F061FF26E09E
:1009AC001B4B1B68012B1FD1164B1B6819460120D2
:1009BC0000F09CFD154B02221A70192000F050FF1C
:1009CC0012E0134B1B68012B10D10E4B1B68194600
:1009DC00002000F0AFFD192000F042FF0B4B01226C
:1009EC001A7003E000BF02E000BF00E000BF00BFD0
:1009FC0080BD00BFAF00002098000020AD0000209B
:100A0C00400000207C000020B0000020B900002035
:100A1C00A000002080B500AF1D4B1B78042B1ED00E
:100A2C00042B2CDC022B02D0032B0CD027E0FFF77D
:100A3C00FDFD0020FFF722FC0346012B21D1144BB6
:100A4C0003221A701DE0FFF797FE0020FFF716FC3B
:100A5C000346012B17D10E4B04221A7013E0FFF73B
:100A6C0031FF0020FFF70AFC0346002B0DD0084B8A
:100A7C0001221A70FFF788FD00F00CF805E000BFAA
:100A8C0004E000BF02E000BF00E000BF00BF80BD7B
:100A9C00B000002080B400AF1A4B01221A701A4B20
:100AAC0000221A70194B00221A70194B00221A706E
:100ABC00184B00221A70184B00221A70174B002288
:100ACC001A70174B00221A70164B00221A70164B14
:100ADC0000221A70154B00221A70154B00221A7046
:100AEC00144B00221A70144B00221A60134B1B6813
:100AFC00134A1360134B1B68134A136000BFBD46A7
:100B0C0080BC7047B0000020BA000020B10000206B
:100B1C00BC000020B2000020AE000020BB00002072
:100B2C00AF000020B9000020AD000020AC00002078
:100B3C00B8000020BD0000207C0000203C000020FC
:100B4C00A800002040000020B400002080B582B036
:100B5C0000AF78607B68092B00F2808101A252F80B
:100B6C0023F000BF990B0008E10B0008290C0008CA
:100B7C00710C0008B90C0008010D0008490D0008A3
:100B8C00910D0008D90D0008210E0008002201214A
:100B9C00B54801F098FA00220221B34801F093FA0B
:100BAC0000220421B04801F08EFA00220821AE4840
:100BBC0001F089FA00221021AB4801F084FA0022DE
:100BCC002021A94801F07FFA01224021A64801F01A
:100BDC007AFA44E101220121A34801F074FA0022BF
:100BEC000221A14801F06FFA002204219E4801F075
:100BFC006AFA012208219C4801F065FA01221021B1
:100C0C00994801F060FA01222021974801F05BFA23
:100C1C0001224021944801F056FA20E100220121E2
:100C2C00914801F050FA002202218F4801F04BFA52
:100C3C00012204218C4801F046FA002208218A483E
:100C4C0001F041FA00221021874801F03CFA012200
:100C5C002021854801F037FA00224021824801F01A
:100C6C0032FAFCE0002201217F4801F02CFA00222C
:100C7C0002217D4801F027FA002204217A4801F074
:100C8C0022FA00220821784801F01DFA01221021D5
:100C9C00754801F018FA01222021734801F013FA6B
:100CAC0000224021704801F00EFAD8E00122012107
:100CBC006D4801F008FA002202216B4801F003FA9A
:100CCC0000220421684801F0FEF90122082166483F
:100CDC0001F0F9F901221021634801F0F4F9002226
:100CEC002021614801F0EFF9002240215E4801F01B
:100CFC00EAF9B4E0002201215B4801F0E4F9012299
:100D0C000221594801F0DFF900220421564801F074
:100D1C00DAF900220821544801F0D5F901221021FA
:100D2C00514801F0D0F9002220214F4801F0CBF9B5
:100D3C00002240214C4801F0C6F990E0002201212C
:100D4C00494801F0C0F901220221474801F0BBF9E2
:100D5C0000220421444801F0B6F90022082142483F
:100D6C0001F0B1F9002210213F4801F0ACF900224A
:100D7C0020213D4801F0A7F9002240213A4801F01A
:100D8C00A2F96CE000220121374801F09CF9002205
:100D9C000221354801F097F900220421324801F074
:100DAC0092F901220821304801F08DF9012210211D
:100DBC002D4801F088F9012220212B4801F083F9FC
:100DCC0001224021284801F07EF948E0002201214F
:100DDC00254801F078F900220221234801F073F92B
:100DEC0000220421204801F06EF9002208211E483F
:100DFC0001F069F9002210211B4801F064F900226E
:100E0C002021194801F05FF900224021164801F019
:100E1C005AF924E000220121134801F054F9002270
:100E2C000221114801F04FF9002204210E4801F073
:100E3C004AF9002208210C4801F045F90122102141
:100E4C00094801F040F900222021074801F03BF944
:100E5C0000224021044801F036F900E000BF00BF39
:100E6C000837BD4680BD00BF0008014080B582B088
:100E7C0000AF78607B68092B00F2BC8101A252F8AC
:100E8C0023F000BFB90E00080D0F0008610F000819
:100E9C00B50F0008091000085D100008B11000081B
:100EAC000511000859110008AD110008002280211D
:100EBC00D34801F008F900224FF48071D04801F0BA
:100ECC0002F900224FF40071CD4801F0FCF8002229
:100EDC004FF48061CA4801F0F6F800224FF400612B
:100EEC00C74801F0F0F800224FF48051C44801F0DB
:100EFC00EAF801224FF40051C14801F0E4F87AE11C
:100F0C0001228021BE4801F0DEF800224FF48071EE
:100F1C00BB4801F0D8F800224FF40071B84801F03A
:100F2C00D2F801224FF48061B54801F0CCF80122CF
:100F3C004FF40061B24801F0C6F801224FF4805121
:100F4C00AF4801F0C0F801224FF40051AC4801F059
:100F5C00BAF850E100228021A94801F0B4F800222F
:100F6C004FF48071A64801F0AEF801224FF40071E5
:100F7C00A34801F0A8F800224FF48061A04801F0CA
:100F8C00A2F800224FF400619D4801F09CF8012268
:100F9C004FF480519A4801F096F800224FF400511A
:100FAC00974801F090F826E100228021944801F046
:100FBC008AF800224FF48071914801F084F80022E5
:100FCC004FF400718E4801F07EF800224FF48061DE
:100FDC008B4801F078F801224FF40061884801F049
:100FEC0072F801224FF48051854801F06CF8002210
:100FFC004FF40051824801F066F8FCE00122802198
:10100C007F4801F060F800224FF480717C4801F0B9
:10101C005AF800224FF40071794801F054F801227B
:10102C004FF48061764801F04EF801224FF40061D4
:10103C00734801F048F800224FF48051704801F0D9
:10104C0042F800224FF400516D4801F03CF8D2E018
:10105C00002280216A4801F036F801224FF4807199
:10106C00674801F030F800224FF40071644801F039
:10107C002AF800224FF48061614801F024F8012223
:10108C004FF400615E4801F01EF800224FF48051CD
:10109C005B4801F018F800224FF40051584801F059
:1010AC0012F8A8E000228021554801F00CF801222A
:1010BC004FF48071524801F006F800224FF4007191
:1010CC004F4801F000F800224FF480614C4800F0CA
:1010DC00FAFF00224FF40061494800F0F4FF0022AF
:1010EC004FF48051464800F0EEFF00224FF40051BF
:1010FC00434800F0E8FF7EE000228021404800F0E9
:10110C00E2FF00224FF480713D4800F0DCFF00222A
:10111C004FF400713A4800F0D6FF01224FF4806181
:10112C00374800F0D0FF01224FF40061344800F042
:10113C00CAFF01224FF48051314800F0C4FF012254
:10114C004FF400512E4800F0BEFF54E000228021E5
:10115C002B4800F0B8FF00224FF48071284800F0B3
:10116C00B2FF00224FF40071254800F0ACFF0022C2
:10117C004FF48061224800F0A6FF00224FF400617A
:10118C001F4800F0A0FF00224FF480511C4800F0D3
:10119C009AFF00224FF40051194800F094FF2AE006
:1011AC0000228021164800F08EFF00224FF480713F
:1011BC00134800F088FF00224FF40071104800F033
:1011CC0082FF00224FF480610D4800F07CFF012269
:1011DC004FF400610A4800F076FF00224FF4805172
:1011EC00074800F070FF00224FF40051044800F053
:1011FC006AFF00E000BF00BF0837BD4680BD00BFDE
:10120C000008014080B582B000AF0346FB71FB794A
:10121C00032B4BD801A252F823F000BF391200085F
:10122C005912000899120008791200080122202195
:10123C00214800F048FF012210211F4800F043FF15
:10124C00012208211C4800F03EFF30E00122202141
:10125C00194800F038FF01221021174800F033FF25
:10126C0000220821144800F02EFF20E0012220214A
:10127C00114800F028FF002210210F4800F023FF36
:10128C00012208210C4800F01EFF10E00022202152
:10129C00094800F018FF01221021074800F013FF45
:1012AC0001220821044800F00EFF00E000BF00BF3F
:1012BC000837BD4680BD00BF000C014080B582B030
:1012CC0000AF0346FB71FB79032B4FD801A252F8F8
:1012DC0023F000BFF1120008131300085713000885
:1012EC003513000801224FF48071234800F0EBFE07
:1012FC0001228021204800F0E6FE012240211E48F8
:10130C0000F0E1FE33E001224FF480711A4800F046
:10131C00DAFE01228021184800F0D5FE002240217F
:10132C00154800F0D0FE22E001224FF480711248E3
:10133C0000F0C9FE002280210F4800F0C4FE0122FB
:10134C0040210D4800F0BFFE11E000224FF48071E7
:10135C00094800F0B8FE01228021074800F0B3FED6
:10136C0001224021044800F0AEFE00E000BF00BFA7
:10137C000837BD4680BD00BF000C014080B582B06F
:10138C0000AF0346FB71FB79032B23D0032B5DDCF1
:10139C00012B3DD0022B59D1012208212E4800F0FF
:1013AC0092FE012210212C4800F08DFE01224021DA
:1013BC00294800F088FE01228021274800F083FE96
:1013CC002021254800F097FE4FF48071224800F050
:1013DC0092FE3CE0012208211F4800F074FE01221D
:1013EC0020211D4800F06FFE012240211A4800F018
:1013FC006AFE01224FF48071174800F064FE102140
:10140C00154800F078FE8021134800F074FE1EE0B1
:10141C0001221021104800F056FE012220210E4816
:10142C0000F051FE012280210B4800F04CFE0122FD
:10143C004FF48071084800F046FE0821064800F081
:10144C005AFE4021044800F056FE00E000BF00BFE9
:10145C000837BD4680BD00BF000C014080B500AF11
:10146C0000224FF40071054800F02DFE01224FF4CC
:10147C008061024800F027FE00BF80BD000C0140D7
:10148C0080B500AF01224FF40071054800F01BFE3F
:10149C0000224FF48061024800F015FE00BF80BDB1
:1014AC00000C014080B500AF00224FF400610548EC
:1014BC0000F009FE01224FF48051024800F003FEB7
:1014CC0000BF80BD000C014080B500AF01224FF47D
:1014DC000061054800F0F7FD00224FF480510248EE
:1014EC0000F0F1FD00BF80BD000C014080B582B062
:1014FC0000AF78603960FFF7B1FF7B680C4A82FB64
:10150C0003129210DB17D31A1846FFF71FFBFFF7D5
:10151C00C9FF3B68064A82FB03129210DB17D31AF1
:10152C001846FFF7A3FC00BF0837BD4680BD00BFBF
:10153C006766666680B582B000AF78603960FFF789
:10154C009FFF7A68114B83FB02139910D317C91AAA
:10155C000B469B000B445B00D11A0846FFF7F6FACA
:10156C00FFF7B2FF3A68094B83FB02139910D317AC
:10157C00C91A0B469B000B445B00D11A0846FFF7B7
:10158C0075FC00BF0837BD4680BD00BF6766666648
:10159C0080B500AF00F096FA00F016F800F09CF859
:1015AC0000F04EF8074801F0EBF9FFF773FA002052
:1015BC00FFF728FE0020FFF781FEFEF779FEFFF70C
:1015CC0029FAFAE7C000002080B590B000AF07F10F
:1015DC00180328220021184601F082FD3B1D002231
:1015EC001A605A609A60DA601A610223BB610123A7
:1015FC00BB621023FB6200237B6307F118031846C0
:10160C0000F092FD0346002B01D000F0D3F80F231D
:10161C007B600023BB600023FB6000233B61002345
:10162C007B613B1D0021184600F0FEFF0346002B9A
:10163C0001D000F0BFF800BF4037BD4680BD0000B0
:10164C0080B586B000AF07F1080300221A605A601B
:10165C009A60DA603B4600221A605A601D4B4FF0CC
:10166C0080421A601B4B41F63F725A60194B0022A4
:10167C009A60184B0922DA60164B00221A61154B3E
:10168C0000229A61134801F02BF90346002B01D07C
:10169C0000F090F84FF48053BB6007F10803194633
:1016AC000C4801F0A9FA0346002B01D000F082F897
:1016BC0000233B6000237B603B461946054801F044
:1016CC0081FC0346002B01D000F074F800BF1837E2
:1016DC00BD4680BDC000002080B586B000AF07F1CC
:1016EC00080300221A605A609A60DA60284B9B69E2
:1016FC00274A43F004039361254B9B6903F00403D1
:10170C007B607B68224B9B69214A43F00803936101
:10171C001F4B9B6903F008033B603B68002243F6B8
:10172C00FF711C4800F0CFFC002241F6F8711A48FA
:10173C0000F0C9FC43F6FF73BB600123FB60002380
:10174C003B6102237B6107F108031946114800F045
:10175C0029FB0723BB600023FB6001233B6107F1DE
:10176C00080319460C4800F01DFB41F6F873BB60EA
:10177C000123FB6000233B6102237B6107F108031B
:10178C001946054800F00EFB00BF1837BD4680BD5A
:10179C000010024000080140000C014080B582B0EE
:1017AC0000AF7860FEF7DCFC00F06EF800BF083785
:1017BC00BD4680BD80B400AF72B600BFFEE700002E
:1017CC0080B483B000AF7860054A7B681360054B2A
:1017DC0000221A6000BF0C37BD4680BC704700BFAA
:1017EC00840000208000002080B483B000AF7860BB
:1017FC00054A7B681360054B00221A6000BF0C374A
:10180C00BD4680BC704700BF8C00002088000020C3
:10181C0080B483B000AF7860054A7B681360054BD9
:10182C0000221A6000BF0C37BD4680BC704700BF59
:10183C00940000209000002080B483B000AF78604A
:10184C00054A7B681360054B00221A6000BF0C37F9
:10185C00BD4680BC704700BF9C0000209800002053
:10186C0080B483B000AF7860054A7B681360054B89
:10187C0000221A6000BF0C37BD4680BC704700BF09
:10188C00A4000020A000002080B400AF294B1B68EE
:10189C00002B0BDD274B1B68013B264A1360254BA5
:1018AC001B68002B02DC244B01221A60234B1B68A3
:1018BC00002B0BDD214B1B68013B204A13601F4B97
:1018CC001B68002B02DC1E4B01221A601D4B1B688F
:1018DC00002B0BDD1B4B1B68013B1A4A1360194B89
:1018EC001B68002B02DC184B01221A60174B1B687B
:1018FC00002B0BDD154B1B68013B144A1360134B7B
:10190C001B68002B02DC124B01221A60114B1B6866
:10191C00002B0BDD0F4B1B68013B0E4A13600D4B6C
:10192C001B68002B02DC0C4B01221A6000BFBD4669
:10193C0080BC704784000020800000208C000020B8
:10194C008800002094000020900000209C000020C3
:10195C0098000020A4000020A000002080B485B0D6
:10196C0000AF154B9B69144A43F001039361124B72
:10197C009B6903F00103BB60BB680F4BDB690E4A2C
:10198C0043F08053D3610C4BDB6903F080537B60D5
:10199C007B680A4B5B68FB60FB6823F0E063FB60D1
:1019AC00FB6843F08063FB60044AFB68536000BF34
:1019BC001437BD4680BC7047001002400000014047
:1019CC0080B584B000AF78607B681B68B3F1804F42
:1019DC0013D10C4BDB690B4A43F00103D361094B68
:1019EC00DB6903F00103FB60FB68002200211C2073
:1019FC0000F0A1F91C2000F0BAF900BF1037BD4669
:101A0C0080BD00BF0010024080B400AFFEE780B480
:101A1C0000AFFEE780B400AFFEE780B400AFFEE796
:101A2C0080B400AFFEE780B400AF00BFBD4680BC01
:101A3C00704780B400AF00BFBD4680BC704780B417
:101A4C0000AF00BFBD4680BC704780B500AF00F052
:101A5C007FF800BF80BD000080B500AF024800F0E9
:101A6C00DBFF00BF80BD00BFC000002080B400AF12
:101A7C0000BFBD4680BC7047FFF7F8FF0B480C4910
:101A8C000C4A002302E0D458C4500433C4188C42CE
:101A9C00F9D3094A094C002301E013600432A24235
:101AAC00FBD301F0F9FAFFF773FD7047000000203B
:101ABC005400002040310008540000200C0100208C
:101ACC00FEE7000080B500AF084B1B68074A43F0E7
:101ADC0010031360032000F023F90F2000F008F826
:101AEC00FFF73CFF0023184680BD00BF00200240DA
:101AFC0080B582B000AF7860124B1A68124B1B781D
:101B0C0019464FF47A73B3FBF1F3B2FBF3F31846B7
:101B1C0000F03BF90346002B01D001230EE07B685B
:101B2C000F2B0AD8002279684FF0FF3000F003F930
:101B3C00064A7B681360002300E00123184608372F
:101B4C00BD4680BD48000020500000204C00002005
:101B5C0080B400AF054B1B781A46054B1B68134429
:101B6C00034A136000BFBD4680BC70475000002084
:101B7C000801002080B400AF024B1B681846BD461C
:101B8C0080BC70470801002080B485B000AF78603D
:101B9C007B6803F00703FB600C4BDB68BB60BA6827
:101BAC004FF6FF031340BB60FB681A02BB6813437C
:101BBC0043F0BF6343F40033BB60044ABB68D3609B
:101BCC0000BF1437BD4680BC704700BF00ED00E07D
:101BDC0080B400AF044BDB681B0A03F00703184604
:101BEC00BD4680BC704700BF00ED00E080B483B000
:101BFC0000AF0346FB7197F90730002B0BDBFB7929
:101C0C0003F01F02064997F907305B09012000FA1F
:101C1C0002F241F8232000BF0C37BD4680BC704750
:101C2C0000E100E080B483B000AF03463960FB7183
:101C3C0097F90730002B0ADB3B68DAB20C4997F9AD
:101C4C0007301201D2B20B4483F800230AE03B6840
:101C5C00DAB20849FB7903F00F03043B1201D2B24C
:101C6C000B441A7600BF0C37BD4680BC704700BFD2
:101C7C0000E100E000ED00E080B489B000AFF86056
:101C8C00B9607A60FB6803F00703FB61FB69C3F181
:101C9C000703042B28BF0423BB61FB690433062B09
:101CAC0002D9FB69033B00E000237B614FF0FF325C
:101CBC00BB6902FA03F3DA43BB681A407B699A40AA
:101CCC004FF0FF317B6901FA03F3D9437B680B407A
:101CDC00134318462437BD4680BC704780B582B08C
:101CEC0000AF78607B68013BB3F1807F01D30123A7
:101CFC000FE00A4A7B68013B53600F214FF0FF3025
:101D0C00FFF790FF054B00229A60044B07221A60E4
:101D1C00002318460837BD4680BD00BF10E000E028
:101D2C0080B582B000AF78607868FFF72DFF00BFF8
:101D3C000837BD4680BD80B586B000AF0346B9609C
:101D4C007A60FB7300237B61FFF742FF78617A684E
:101D5C00B9687869FFF790FF024697F90F30114682
:101D6C001846FFF75FFF00BF1837BD4680BD80B532
:101D7C0082B000AF0346FB7197F907301846FFF7A6
:101D8C0035FF00BF0837BD4680BD80B582B000AFBF
:101D9C0078607868FFF7A2FF034618460837BD46FF
:101DAC0080BD000080B48BB000AF78603960002338
:101DBC007B6200233B6248E101227B6A02FA03F357
:101DCC00FB613B681B68FA691340BB61BA69FB692C
:101DDC009A4240F037813B685B68A34A93425ED0DD
:101DEC00A14A934275D8A14A934258D09F4A934234
:101DFC006FD89F4A934252D09D4A934269D89D4ACC
:101E0C0093424CD09B4A934263D89B4A934246D010
:101E1C00994A93425DD8122B2AD8122B59D801A279
:101E2C0052F823F0AB1E0008851E0008971E000810
:101E3C00D91E0008DF1E0008DF1E0008DF1E000888
:101E4C00DF1E0008DF1E0008DF1E0008DF1E000872
:101E5C00DF1E0008DF1E0008DF1E0008DF1E000862
:101E6C00DF1E0008DF1E00088D1E0008A11E0008E2
:101E7C00824A934213D02CE03B68DB683B6229E03A
:101E8C003B68DB6804333B6224E03B68DB68083367
:101E9C003B621FE03B68DB680C333B621AE03B683B
:101EAC009B68002B02D104233B6213E03B689B68C8
:101EBC00012B05D108233B627B68FA691A6109E0A2
:101ECC0008233B627B68FA695A6103E000233B629A
:101EDC0000E000BFBB69FF2B01D87B6801E07B6889
:101EEC0004337B61BB69FF2B02D87B6A9B0002E049
:101EFC007B6A083B9B003B617B691A680F213B693D
:101F0C0001FA03F3DB431A40396A3B6901FA03F324
:101F1C001A437B691A603B685B6803F08053002BA3
:101F2C0000F09080564B9B69554A43F00103936136
:101F3C00534B9B6903F00103BB60BB68514A7B6A3E
:101F4C009B08023352F82330FB607B6A03F00303D7
:101F5C009B000F2202FA03F3DB43FA681340FB6089
:101F6C007B68494A93420DD07B68484A934207D01C
:101F7C007B68474A934201D1022304E0032302E029
:101F8C00012300E000237A6A02F0030292009340DE
:101F9C00FA681343FB603B497B6A9B080233FA687F
:101FAC0041F823203B685B6803F48013002B06D0B8
:101FBC00384B9A683749BB6913438B6006E0354B45
:101FCC009A68BB69DB43334913408B603B685B68A1
:101FDC0003F40013002B06D02E4BDA682D49BB6995
:101FEC001343CB6006E02B4BDA68BB69DB43294912
:101FFC001340CB603B685B6803F40033002B06D0C6
:10200C00244B5A682349BB6913434B6006E0214BB0
:10201C005A68BB69DB431F4913404B603B685B68E4
:10202C0003F48033002B06D01A4B1A681949BB698C
:10203C0013430B6006E0174B1A68BB69DB43154969
:10204C0013400B607B6A01337B623B681A687B6AC6
:10205C0022FA03F3002B7FF4AFAE00BF00BF2C3786
:10206C00BD4680BC704700BF00003210000031102C
:10207C0000002210000021100000121000001110AE
:10208C00001002400000014000080140000C01401B
:10209C00001001400004014080B485B000AF7860AE
:1020AC000B467B807B689A687B881340002B02D0A0
:1020BC000123FB7301E00023FB73FB7B18461437F1
:1020CC00BD4680BC704780B483B000AF78600B46CF
:1020DC007B8013467B707B78002B03D07A887B68DF
:1020EC001A6103E07B881A047B681A6100BF0C3705
:1020FC00BD4680BC704780B485B000AF78600B469D
:10210C007B807B68DB68FB607A88FB6813401A0471
:10211C00FB68D9437B880B401A437B681A6100BF6C
:10212C001437BD4680BC704780B586B000AF786070
:10213C007B68002B01D101236CE27B681B6803F0E8
:10214C000103002B00F08780924B5B6803F00C03BB
:10215C00042B0CD08F4B5B6803F00C03082B12D1B3
:10216C008C4B5B6803F48033B3F5803F0BD1894B08
:10217C001B6803F40033002B6CD07B685B68002B6E
:10218C0068D1012346E27B685B68B3F5803F06D1DA
:10219C00804B1B687F4A43F4803313602EE07B68CE
:1021AC005B68002B0CD17B4B1B687A4A23F4803381
:1021BC001360784B1B68774A23F4802313601DE06F
:1021CC007B685B68B3F5A02F0CD1724B1B68714A0E
:1021DC0043F4802313606F4B1B686E4A43F48033C7
:1021EC0013600BE06B4B1B686A4A23F4803313605B
:1021FC00684B1B68674A23F4802313607B685B6819
:10220C00002B13D0FFF7B6FC386108E0FFF7B2FCE7
:10221C0002463B69D31A642B01D90323FAE15D4BC7
:10222C001B6803F40033002BF0D014E0FFF7A2FC82
:10223C00386108E0FFF79EFC02463B69D31A642B19
:10224C0001D90323E6E1534B1B6803F40033002B45
:10225C00F0D100E000BF7B681B6803F00203002B89
:10226C0063D04C4B5B6803F00C03002B0BD0494B39
:10227C005B6803F00C03082B1CD1464B5B6803F422
:10228C008033002B16D1434B1B6803F00203002B49
:10229C0005D07B681B69012B01D00123BAE13D4BB2
:1022AC001B6823F0F8027B685B69DB003949134338
:1022BC000B603AE07B681B69002B20D0364B012267
:1022CC001A60FFF757FC386108E0FFF753FC024631
:1022DC003B69D31A022B01D903239BE12D4B1B68BD
:1022EC0003F00203002BF0D02A4B1B6823F0F802FA
:1022FC007B685B69DB00274913430B6015E0264BB9
:10230C0000221A60FFF736FC386108E0FFF732FC58
:10231C0002463B69D31A022B01D903237AE11D4BE8
:10232C001B6803F00203002BF0D17B681B6803F0E1
:10233C000803002B3AD07B689B69002B19D0174BF4
:10234C0001221A60FFF716FC386108E0FFF712FC57
:10235C0002463B69D31A022B01D903235AE10D4BD8
:10236C005B6A03F00203002BF0D0012000F09AFA14
:10237C001CE00A4B00221A60FFF7FCFB38610FE0EF
:10238C00FFF7F8FB02463B69D31A022B08D903234B
:10239C0040E100BF00100240000042428004424273
:1023AC009E4B5B6A03F00203002BE9D17B681B6830
:1023BC0003F00403002B00F0A6800023FB75974B61
:1023CC00DB6903F08053002B0DD1944BDB69934AEE
:1023DC0043F08053D361914BDB6903F08053BB60B6
:1023EC00BB680123FB758E4B1B6803F48073002BB9
:1023FC0018D18B4B1B688A4A43F480731360FFF728
:10240C00B9FB386108E0FFF7B5FB02463B69D31A0C
:10241C00642B01D90323FDE0814B1B6803F480730B
:10242C00002BF0D07B68DB68012B06D17B4B1B6A41
:10243C007A4A43F0010313622DE07B68DB68002BC2
:10244C000CD1764B1B6A754A23F001031362734B54
:10245C001B6A724A23F0040313621CE07B68DB687E
:10246C00052B0CD16D4B1B6A6C4A43F004031362B1
:10247C006A4B1B6A694A43F0010313620BE0674B1A
:10248C001B6A664A23F001031362644B1B6A634A9E
:10249C0023F0040313627B68DB68002B15D0FFF775
:1024AC0069FB38610AE0FFF765FB02463B69D31A0A
:1024BC0041F28832934201D90323ABE0574B1B6A9C
:1024CC0003F00203002BEED014E0FFF753FB38614E
:1024DC000AE0FFF74FFB02463B69D31A41F2883200
:1024EC00934201D9032395E04C4B1B6A03F0020382
:1024FC00002BEED1FB7D012B05D1484BDB69474A04
:10250C0023F08053D3617B68DB69002B00F0818062
:10251C00424B5B6803F00C03082B61D07B68DB69D2
:10252C00022B46D13F4B00221A60FFF723FB386188
:10253C0008E0FFF71FFB02463B69D31A022B01D9B7
:10254C00032367E0354B1B6803F00073002BF0D1BD
:10255C007B681B6AB3F5803F08D1304B5B6823F472
:10256C0000327B689B682D4913434B602B4B5B6897
:10257C0023F474127B68196A7B685B6A0B432749E6
:10258C0013434B60274B01221A60FFF7F3FA3861B3
:10259C0008E0FFF7EFFA02463B69D31A022B01D988
:1025AC00032337E01D4B1B6803F00073002BF0D0A6
:1025BC002FE01C4B00221A60FFF7DCFA386108E0B0
:1025CC00FFF7D8FA02463B69D31A022B01D9032331
:1025DC0020E0124B1B6803F00073002BF0D118E0C5
:1025EC007B68DB69012B01D1012313E00B4B5B688A
:1025FC00FB60FB6803F480327B681B6A9A4206D14D
:10260C00FB6803F470127B685B6A9A4201D0012369
:10261C0000E0002318461837BD4680BD001002406C
:10262C00007000406000424280B584B000AF78601A
:10263C0039607B68002B01D10123D0E06A4B1B6809
:10264C0003F007033A689A4210D9674B1B6823F0D2
:10265C00070265493B6813430B60634B1B6803F02F
:10266C0007033A689A4201D00123B8E07B681B68E3
:10267C0003F00203002B20D07B681B6803F00403DB
:10268C00002B05D0594B5B68584A43F4E063536008
:10269C007B681B6803F00803002B05D0534B5B6869
:1026AC00524A43F460535360504B5B6823F0F00282
:1026BC007B689B684D4913434B607B681B6803F038
:1026CC000103002B40D07B685B68012B07D1474B83
:1026DC001B6803F40033002B15D101237FE07B68CA
:1026EC005B68022B07D1414B1B6803F00073002B76
:1026FC0009D1012373E03D4B1B6803F00203002B4F
:10270C0001D101236BE0394B5B6823F003027B683A
:10271C005B68364913434B60FFF72CFAF8600AE00C
:10272C00FFF728FA0246FB68D31A41F2883293422B
:10273C0001D9032353E02D4B5B6803F00C027B683B
:10274C005B689B009A42EBD1274B1B6803F0070395
:10275C003A689A4210D2244B1B6823F00702224994
:10276C003B6813430B60204B1B6803F007033A686C
:10277C009A4201D0012332E07B681B6803F004030A
:10278C00002B08D0194B5B6823F4E0627B68DB6894
:10279C00164913434B607B681B6803F00803002B3E
:1027AC0009D0124B5B6823F460527B681B69DB0019
:1027BC000E4913434B6000F021F802460B4B5B684B
:1027CC001B0903F00F030A49CB5C22FA03F3094AF5
:1027DC001360094B1B681846FFF78AF9002318464B
:1027EC001037BD4680BD00BF0020024000100240E3
:1027FC0014310008480000204C00002080B487B041
:10280C0000AF0023FB600023BB6000237B6100232F
:10281C007B6000233B611E4B5B68FB60FB6803F035
:10282C000C03042B02D0082B03D027E0194B3B617F
:10283C0027E0FB689B0C03F00F03174AD35C7B600B
:10284C00FB6803F48033002B10D0114B5B685B0CDE
:10285C0003F00103114AD35CBB607B680D4A02FB99
:10286C0003F2BB68B2FBF3F37B6104E07B680C4AB8
:10287C0002FB03F37B617B693B6102E0054B3B612F
:10288C0000BF3B6918461C37BD4680BC704700BF73
:10289C000010024000127A00243100083431000884
:1028AC0000093D0080B485B000AF78600A4B1B680E
:1028BC000A4AA2FB03235B0A7A6802FB03F3FB6060
:1028CC0000BFFB685A1EFA60002BF9D100BF00BF95
:1028DC001437BD4680BC704748000020D34D6210B1
:1028EC0080B582B000AF78607B68002B01D10123EA
:1028FC0041E07B6893F83D30DBB2002B06D17B685E
:10290C00002283F83C207868FFF75AF87B68022293
:10291C0083F83D207B681A687B680433194610469F
:10292C0000F056FA7B68012283F846207B6801226E
:10293C0083F83E207B68012283F83F207B680122CC
:10294C0083F840207B68012283F841207B680122B8
:10295C0083F842207B68012283F843207B680122A4
:10296C0083F844207B68012283F845207B68012290
:10297C0083F83D20002318460837BD4680BD000073
:10298C0080B485B000AF78607B6893F83D30DBB2E3
:10299C00012B01D0012335E07B68022283F83D2016
:1029AC007B681B68DA687B681B6842F00102DA609E
:1029BC007B681B68164A934209D07B681B68B3F18D
:1029CC00804F04D07B681B68124A934211D17B68FC
:1029DC001B689B6803F00703FB60FB68062B10D099
:1029EC007B681B681A687B681B6842F001021A60DE
:1029FC0007E07B681B681A687B681B6842F0010261
:102A0C001A60002318461437BD4680BC704700BFBF
:102A1C00002C01400004004080B584B000AF786009
:102A2C007B681B68DB68FB607B681B681B69BB6091
:102A3C00BB6803F00203002B20D0FB6803F00203F9
:102A4C00002B1BD07B681B686FF002021A617B683D
:102A5C0001221A777B681B689B6903F00303002B28
:102A6C0003D0786800F098F905E0786800F08BF9ED
:102A7C00786800F09AF97B6800221A77BB6803F03B
:102A8C000403002B20D0FB6803F00403002B1BD0A5
:102A9C007B681B686FF004021A617B6802221A774C
:102AAC007B681B689B6903F44073002B03D0786828
:102ABC0000F072F905E0786800F065F9786800F0CC
:102ACC0074F97B6800221A77BB6803F00803002BAB
:102ADC0020D0FB6803F00803002B1BD07B681B681D
:102AEC006FF008021A617B6804221A777B681B68F6
:102AFC00DB6903F00303002B03D0786800F04CF97A
:102B0C0005E0786800F03FF9786800F04EF97B68D2
:102B1C0000221A77BB6803F01003002B20D0FB684F
:102B2C0003F01003002B1BD07B681B686FF01002A6
:102B3C001A617B6808221A777B681B68DB6903F4CF
:102B4C004073002B03D0786800F026F905E0786814
:102B5C0000F019F9786800F028F97B6800221A77E0
:102B6C00BB6803F00103002B0CD0FB6803F00103DE
:102B7C00002B07D07B681B686FF001021A61786824
:102B8C00FEF70CFEBB6803F08003002B0CD0FB6837
:102B9C0003F08003002B07D07B681B686FF080026A
:102BAC001A61786800F06FFABB6803F04003002BE1
:102BBC000CD0FB6803F04003002B07D07B681B682C
:102BCC006FF040021A61786800F0F8F8BB6803F007
:102BDC002003002B0CD0FB6803F02003002B07D044
:102BEC007B681B686FF020021A61786800F042FA6B
:102BFC0000BF1037BD4680BD80B584B000AF786093
:102C0C0039600023FB737B6893F83C30012B01D1B6
:102C1C000223B4E07B68012283F83C207B6802220B
:102C2C0083F83D207B681B689B68BB60BB6823F006
:102C3C007703BB60BB6823F47F43BB607B681B6876
:102C4C00BA689A603B681B68B3F5005F3ED0B3F579
:102C5C00005F00F28780B3F5805F00F08680B3F5EB
:102C6C00805F7FD8702B1AD0702B7BD8602B50D004
:102C7C00602B77D8502B3CD0502B73D8402B58D08E
:102C8C00402B6FD8302B64D0302B6BD8202B60D0DE
:102C9C00202B67D8002B5CD0102B5AD062E07B68BD
:102CAC0018683B6899683B685A683B68DB6800F0B9
:102CBC006AF97B681B689B68BB60BB6843F0770351
:102CCC00BB607B681B68BA689A604FE07B681868C9
:102CDC003B6899683B685A683B68DB6800F053F9BD
:102CEC007B681B689A687B681B6842F480429A6018
:102CFC003CE07B6818683B6859683B68DB681A469F
:102D0C0000F0CAF87B681B685021184600F021F9C6
:102D1C002CE07B6818683B6859683B68DB681A468E
:102D2C0000F0E8F87B681B686021184600F011F988
:102D3C001CE07B6818683B6859683B68DB681A467E
:102D4C0000F0AAF87B681B684021184600F001F9D6
:102D5C000CE07B681A683B681B681946104600F04B
:102D6C00F8F803E00123FB7300E000BF7B6801224D
:102D7C0083F83D207B68002283F83C20FB7B1846BF
:102D8C001037BD4680BD80B483B000AF786000BF03
:102D9C000C37BD4680BC704780B483B000AF786000
:102DAC0000BF0C37BD4680BC704780B483B000AF09
:102DBC00786000BF0C37BD4680BC704780B483B0D0
:102DCC0000AF786000BF0C37BD4680BC7047000078
:102DDC0080B485B000AF786039607B681B68FB609D
:102DEC007B682B4A934207D07B68B3F1804F03D0AA
:102DFC007B68284A934208D1FB6823F07003FB6080
:102E0C003B685B68FA681343FB607B68204A93421B
:102E1C0007D07B68B3F1804F03D07B681D4A934287
:102E2C0008D1FB6823F44073FB603B68DB68FA68ED
:102E3C001343FB60FB6823F080023B685B69134320
:102E4C00FB607B68FA681A603B689A687B68DA6298
:102E5C003B681A687B689A627B680D4A934203D17F
:102E6C003B681A697B681A637B6801225A617B682C
:102E7C001B6903F00103002B05D07B681B6923F051
:102E8C0001027B681A6100BF1437BD4680BC7047D5
:102E9C00002C01400004004080B487B000AFF86003
:102EAC00B9607A60FB681B6A7B61FB681B6A23F064
:102EBC000102FB681A62FB689B693B613B6923F06A
:102ECC00F0033B617B681B013A6913433B617B69EF
:102EDC0023F00A037B617A69BB6813437B61FB684F
:102EEC003A699A61FB687A691A6200BF1C37BD4661
:102EFC0080BC704780B487B000AFF860B9607A606E
:102F0C00FB681B6A7B61FB681B6A23F01002FB6881
:102F1C001A62FB689B693B613B6923F470433B611C
:102F2C007B681B033A6913433B617B6923F0A00365
:102F3C007B61BB681B017A6913437B61FB683A694F
:102F4C009A61FB687A691A6200BF1C37BD4680BC67
:102F5C00704780B485B000AF786039607B689B683F
:102F6C00FB60FB6823F07003FB603A68FB6813435B
:102F7C0043F00703FB607B68FA689A6000BF143764
:102F8C00BD4680BC704780B487B000AFF860B960B4
:102F9C007A603B60FB689B687B617B6923F47F43B1
:102FAC007B613B681A027B681A43BB6813437A69DE
:102FBC0013437B61FB687A699A6000BF1C37BD467E
:102FCC0080BC704780B485B000AF786039607B6896
:102FDC0093F83C30012B01D1022341E07B680122A4
:102FEC0083F83C207B68022283F83D207B681B68B9
:102FFC005B68FB607B681B689B68BB60FB6823F0AD
:10300C007003FB603B681B68FA681343FB607B68CA
:10301C001B68FA685A607B681B68144A934209D093
:10302C007B681B68B3F1804F04D07B681B68104A27
:10303C0093420CD1BB6823F08003BB603B685B6898
:10304C00BA681343BB607B681B68BA689A607B687C
:10305C00012283F83D207B68002283F83C2000236A
:10306C0018461437BD4680BC704700BF002C014089
:10307C000004004080B483B000AF786000BF0C3710
:10308C00BD4680BC704780B483B000AF786000BF91
:10309C000C37BD4680BC704770B500260C4D0D4CEE
:1030AC00641BA410A64209D100F022F800260A4D98
:1030BC000A4C641BA410A64205D170BD55F8043B04
:1030CC0098470136EEE755F8043B98470136F2E78E
:1030DC003831000838310008383100083C3100081C
:1030EC0003460244934200D1704703F8011BF9E7F1
:1030FC00F8B500BFF8BC08BC9E467047F8B500BFD9
:08310C00F8BC08BC9E467047A8
:103114000000000000000000010203040607080983
:1031240002030405060708090A0B0C0D0E0F101004
:043134000102000094
:043138003101000859
:04313C000D01000879
:10314000010000000100000001000000010000007B
:10315000010000000100000001000000010000006B
:10316000010000000100000001000000010000005B
:10317000640000006400000064000000050000001E
:10318000030000000200000000127A00100000009E
:04319000010000003A
:0400000508001A8550
:00000001FF
