:020000040800F2
:1000000000280020851A0008A9190008AF19000867
:10001000B5190008BB190008C1190008000000004C
:10002000000000000000000000000000C7190008E8
:10003000D319000800000000DF190008EB190008C0
:10004000CD1A0008CD1A0008CD1A0008CD1A0008F4
:10005000CD1A0008CD1A0008CD1A0008CD1A0008E4
:10006000CD1A0008CD1A0008CD1A0008CD1A0008D4
:10007000CD1A0008CD1A0008CD1A0008CD1A0008C4
:10008000CD1A0008CD1A0008CD1A0008CD1A0008B4
:10009000CD1A0008CD1A0008CD1A0008CD1A0008A4
:1000A000CD1A0008CD1A0008CD1A0008CD1A000894
:1000B000F9190008CD1A000800000000CD1A000848
:1000C000CD1A00080000000000000000CD1A000852
:1000D00000000000CD1A0008CD1A00080000000042
:1000E000CD1A0008CD1A0008CD1A00080000000043
:1000F0000000000000000000000000000000000000
:0C01000000000000000000005FF808F1A3
:10010C0010B5054C237833B9044B13B10448AFF345
:10011C0000800123237010BDB800002000000000F7
:10012C00B032000808B5034B1BB103490348AFF3C9
:10013C00008008BD00000000BC000020B0320008A8
:10014C0080B483B000AF7860044A7B68012142F828
:10015C00231000BF0C37BD4680BC7047D400002074
:10016C0080B582B000AF00237B6073E03D4A7B68B2
:10017C0052F823203C497B6841F823203B4A7B689A
:10018C0052F8232037497B6841F823200121384855
:10019C0001F082FF03461A46344B1A6002213448A0
:1001AC0001F07AFF03461A46304B5A60042130485E
:1001BC0001F072FF03461A462C4B9A60294A7B6861
:1001CC0052F8232029497B6851F823309A423ED1BA
:1001DC00244A7B6852F8232023497B6851F823304A
:1001EC009A4234D1214A7B6852F8232021497B68FA
:1001FC0051F823309A4216D01C4A7B6852F82320BF
:10020C001C497B6841F82320184A7B6852F823303C
:10021C00002B1CD17868FFF793FF174A7B68642189
:10022C0042F8231013E0144A7B6852F823305A1E0C
:10023C0011497B6841F823200F4A7B6852F8233020
:10024C00002B04DC0B4A7B68012142F823107B68ED
:10025C0001337B607B68022B88DD00BF00BF083751
:10026C00BD4680BD0C0000201800002000000020BE
:10027C00000C0140240000203000002080B483B02A
:10028C0000AF7860094A7B6852F82330012B06D105
:10029C00064A7B68002142F82310012300E000236A
:1002AC0018460C37BD4680BC704700BFD4000020F8
:1002BC0080B400AF064B1B68013B054A1360054B2D
:1002CC001B68013B034A136000BFBD4680BC7047EE
:1002DC00F80000200401002080B500AF724B1B78A1
:1002EC00012B40F0DF80714B1B78032B3BD801A214
:1002FC0052F823F011030008190300083703000813
:10030C0055030008694B01221A7033E0012000F0FC
:10031C00B5FE674B1B68002B27DC664B1B68644AD9
:10032C001360624B02221A701FE0022000F0A6FE3E
:10033C005F4B1B68002B1ADC5F4B1B685C4A13601D
:10034C005A4B03221A7012E0032000F097FE584B10
:10035C001B68002B0DDC594B1B68554A1360534B23
:10036C0001221A7005E000BF04E000BF02E000BFEC
:10037C0000E000BF524B1B78032B3CD801A252F873
:10038C0023F000BFA1030008A9030008C70300085D
:10039C00E50300084A4B02221A7033E0012000F0FA
:1003AC00C9FE484B1B68002B27DC424B1B68454A97
:1003BC001360434B02221A701FE0022000F0BAFEB9
:1003CC00404B1B68002B1ADC3B4B1B683D4A1360EF
:1003DC003B4B03221A7012E0032000F0ABFE394BAA
:1003EC001B68002B0DDC354B1B68364A1360344BF5
:1003FC0001221A7005E000BF04E000BF02E000BF5C
:10040C0000E000BF304B1B78022B25D0022B3BDCCD
:10041C00002B02D0012B07D036E02C4B00221A60A7
:10042C00294B01221A7034E0284B1B680133274AF0
:10043C001360264B1B68322B28D11D4B1B68214A9D
:10044C0012681146184600F08DFF1F4B02221A70DD
:10045C001E4B00221A6019E01C4B1B6801331B4A0F
:10046C0013601A4B1B68322B12D1114B1B68154AA7
:10047C0012681146184600F099FF134B01221A70AE
:10048C00124B00221A6003E000BF02E000BF00E044
:10049C0000BF0020FFF7F2FE0346002B02D0024BF8
:1004AC0002221A7000BF80BD00010020FC00002059
:1004BC00F800002040000020440000203C000020F8
:1004CC0008010020040100200D010020E0000020A4
:1004DC0080B483B000AF244B1A68244B1B681A44B9
:1004EC00234B1B689A421ADA214B1A681E4B1B6865
:1004FC00D21A1E4B1B68D31A7B607B68DA0F13442D
:10050C005B101A46194B1B681344184A1360184B9E
:10051C001A68164B1B68D31A134A13600FE0124B60
:10052C001A68124B1B681A44114B1B689A4206DD61
:10053C000D4B1A680D4B1B6813440D4A13600A4B84
:10054C001A680A4B1B689A4209DD084B1B683B6012
:10055C00054B1B68054A1360034A3B68136000BFD8
:10056C000C37BD4680BC7047440000204000002082
:10057C003C00002080B500AF3A4B1B78002B02D01A
:10058C00012B04D007E0374B01221A7003E0012045
:10059C0000F030FE00BF344B1B78002B02D0012B37
:1005AC0013D038E0314B1B68314A13600120FFF740
:1005BC0065FE0346012B2BD12B4B01221A702C4BC1
:1005CC001B6801332A4A136022E00120FFF756FE14
:1005DC000346012B0BD1264B1B680133244A1360B5
:1005EC00234B1B68622B02DD214B01221A60022077
:1005FC00FFF744FE0346012B0CD11D4B1B681B4A15
:10060C0013601B4B00221A601A4B03221A7001E074
:10061C0000BF00E000BF184B1B78022B14D0022B3C
:10062C001CDC002B02D0012B04D017E0124B012252
:10063C001A7014E00E4B1B681946012000F092FE54
:10064C000D4B02221A700AE0094B1B681946002058
:10065C0000F0ACFE084B01221A7000E000BF00BF96
:10066C0080BD00BF0A0100200C0100203C000020CE
:10067C00E4000020000100200101002080B500AF43
:10068C003A4B1B78002B02D0012B04D007E0374BE0
:10069C0001221A7003E0032000F0ACFD00BF344BC4
:1006AC001B78002B02D0012B16D038E0314B1B6885
:1006BC00314A13600120FFF7E1FD0346012B07D1FE
:1006CC002B4B01221A702C4B1B6801332A4A1360E6
:1006DC00274B01221A7022E00120FFF7CFFD0346C1
:1006EC00012B0BD1244B1B680133234A1360224B83
:1006FC001B68622B02DD204B01221A600220FFF7DF
:10070C00BDFD0346012B09D11B4B1B68194A136015
:10071C00194B00221A60194B04221A7000BF184B97
:10072C001B78022B14D0022B1CDC002B02D0012BCB
:10073C0004D017E0124B01221A7014E00E4B1B6808
:10074C001946012000F00EFE0D4B02221A700AE031
:10075C00094B1B681946002000F028FE084B0122AB
:10076C001A7000E000BF00BF80BD00BF0201002076
:10077C000B01002044000020E400002000010020B8
:10078C00FE00002080B500AF3A4B1B78002B02D046
:10079C00012B04D007E0374B01221A7003E0022032
:1007AC0000F028FD00BF344B1B78002B02D0012B2E
:1007BC0013D039E0314B1B68314A13600120FFF72D
:1007CC005DFD0346012B2CD12B4B01221A702C4BB7
:1007DC001B6801332A4A136023E00120FFF74EFD0A
:1007EC000346012B0BD1264B1B680133244A1360A3
:1007FC00234B1B68622B02DD214B01221A60022065
:10080C00FFF73CFD0346012B0DD11D4B1B681B4A0A
:10081C001360FFF75DFE1B4B01221A7000F076F897
:10082C0001E000BF00E000BF174B1B78022B14D077
:10083C00022B1CDC002B02D0012B04D017E0124B36
:10084C0001221A7014E00E4B1B681946012000F0AF
:10085C0089FD0D4B02221A700AE0094B1B681946E0
:10086C00002000F0A3FD084B01221A7000E000BF2D
:10087C0000BF80BDFF000020FD00002040000020D4
:10088C00E4000020000100200901002080B500AF29
:10089C001D4B1B78042B1ED0042B2CDC022B02D0FE
:1008AC00032B0CD027E0FFF765FE0020FFF7E6FCDA
:1008BC000346012B21D1144B03221A701DE0FFF7C4
:1008CC00DDFE0020FFF7DAFC0346012B17D10E4B9F
:1008DC0004221A7013E0FFF755FF0020FFF7CEFC3F
:1008EC000346002B0DD0084B01221A70FFF7F0FDC8
:1008FC0000F00CF805E000BF04E000BF02E000BF10
:10090C0000E000BF00BF80BD0001002080B400AF3C
:10091C001A4B01221A701A4B00221A70194B002222
:10092C001A70194B00221A70184B00221A70184BAF
:10093C0000221A70174B00221A70174B00221A70E3
:10094C00164B00221A70164B00221A70154B0022FF
:10095C001A70154B00221A70144B00221A70144B8B
:10096C0000221A60134B1B68134A1360134B1B684D
:10097C00134A136000BFBD4680BC704700010020C5
:10098C000A010020010100200C01002002010020BE
:10099C00FE0000200B010020FF00002009010020B8
:1009AC00FD000020FC000020080100200D010020AB
:1009BC00E40000203C000020F80000204000002053
:1009CC000401002080B582B000AF78607B68092BF1
:1009DC0000F2808101A252F823F000BF110A000836
:1009EC00590A0008A10A0008E90A0008310B00089E
:1009FC00790B0008C10B0008090C0008510C000809
:100A0C00990C000800220121B54801F05CFB002282
:100A1C000221B34801F057FB00220421B04801F039
:100A2C0052FB00220821AE4801F04DFB00221021A0
:100A3C00AB4801F048FB00222021A94801F043FB00
:100A4C0001224021A64801F03EFB44E10122012194
:100A5C00A34801F038FB00220221A14801F033FB2E
:100A6C00002204219E4801F02EFB012208219C4803
:100A7C0001F029FB01221021994801F024FB0122ED
:100A8C002021974801F01FFB01224021944801F0DE
:100A9C001AFB20E100220121914801F014FB0022F5
:100AAC0002218F4801F00FFB012204218C4801F038
:100ABC000AFB002208218A4801F005FB00221021C4
:100ACC00874801F000FB01222021854801F0FBFA48
:100ADC0000224021824801F0F6FAFCE000220121BC
:100AEC007F4801F0F0FA002202217D4801F0EBFA78
:100AFC00002204217A4801F0E6FA00220821784805
:100B0C0001F0E1FA01221021754801F0DCFA012212
:100B1C002021734801F0D7FA00224021704801F0DF
:100B2C00D2FAD8E0012201216D4801F0CCFA002262
:100B3C0002216B4801F0C7FA00220421684801F039
:100B4C00C2FA01220821664801F0BDFA01221021E7
:100B5C00634801F0B8FA00222021614801F0B3FA91
:100B6C00002240215E4801F0AEFAB4E000220121DF
:100B7C005B4801F0A8FA01220221594801F0A3FABE
:100B8C0000220421564801F09EFA00220821544804
:100B9C0001F099FA01221021514801F094FA002237
:100BAC0020214F4801F08FFA002240214C4801F0DF
:100BBC008AFA90E000220121494801F084FA0122CE
:100BCC000221474801F07FFA00220421444801F039
:100BDC007AFA00220821424801F075FA002210210D
:100BEC003F4801F070FA002220213D4801F06BFAD9
:100BFC00002240213A4801F066FA6CE00022012103
:100C0C00374801F060FA00220221354801F05BFA06
:100C1C0000220421324801F056FA01220821304802
:100C2C0001F051FA012210212D4801F04CFA012259
:100C3C0020212B4801F047FA01224021284801F0DD
:100C4C0042FA48E000220121254801F03CFA00223A
:100C5C000221234801F037FA00220421204801F038
:100C6C0032FA002208211E4801F02DFA0022102130
:100C7C001B4801F028FA00222021194801F023FA20
:100C8C0000224021164801F01EFA24E00022012126
:100C9C00134801F018FA00220221114801F013FA4E
:100CAC00002204210E4801F00EFA002208210C4803
:100CBC0001F009FA01221021094801F004FA00227E
:100CCC002021074801F0FFF900224021044801F0DF
:100CDC00FAF900E000BF00BF0837BD4680BD00BF79
:100CEC000008014080B582B000AF78607B68092BAA
:100CFC0000F2BC8101A252F823F000BF310D0008B4
:100D0C00850D0008D90D00082D0E0008810E000875
:100D1C00D50E0008290F00087D0F0008D10F000820
:100D2C002510000800228021D34801F0CCF90022C4
:100D3C004FF48071D04801F0C6F900224FF40071D5
:100D4C00CD4801F0C0F900224FF48061CA4801F08F
:100D5C00BAF900224FF40061C74801F0B4F900223F
:100D6C004FF48051C44801F0AEF901224FF4005108
:100D7C00C14801F0A8F97AE101228021BE4801F0B6
:100D8C00A2F900224FF48071BB4801F09CF90022BB
:100D9C004FF40071B84801F096F901224FF48061CC
:100DAC00B54801F090F901224FF40061B24801F00E
:100DBC008AF901224FF48051AF4801F084F90122E5
:100DCC004FF40051AC4801F07EF950E10022802133
:100DDC00A94801F078F900224FF48071A64801F07F
:100DEC0072F901224FF40071A34801F06CF9002252
:100DFC004FF48061A04801F066F900224FF40061C5
:100E0C009D4801F060F901224FF480519A4801F09D
:100E1C005AF900224FF40051974801F054F926E199
:100E2C0000228021944801F04EF900224FF4807189
:100E3C00914801F048F900224FF400718E4801F0FE
:100E4C0042F900224FF480618B4801F03CF90122F9
:100E5C004FF40061884801F036F901224FF48051BB
:100E6C00854801F030F900224FF40051824801F01E
:100E7C002AF9FCE0012280217F4801F024F90022AC
:100E8C004FF480717C4801F01EF900224FF4007180
:100E9C00794801F018F901224FF48061764801F08D
:100EAC0012F901224FF40061734801F00CF9002291
:100EBC004FF48051704801F006F900224FF40051B4
:100ECC006D4801F000F9D2E0002280216A4801F05F
:100EDC00FAF801224FF48071674801F0F4F800220F
:100EEC004FF40071644801F0EEF800224FF4806179
:100EFC00614801F0E8F801224FF400615E4801F00E
:100F0C00E2F800224FF480515B4801F0DCF800223B
:100F1C004FF40051584801F0D6F8A8E00022802187
:100F2C00554801F0D0F801224FF48071524801F07D
:100F3C00CAF800224FF400714F4801F0C4F80022A7
:100F4C004FF480614C4801F0BEF800224FF4006170
:100F5C00494801F0B8F800224FF48051464801F09E
:100F6C00B2F800224FF40051434801F0ACF87EE097
:100F7C0000228021404801F0A6F800224FF4807135
:100F8C003D4801F0A0F800224FF400713A4801F0FE
:100F9C009AF801224FF48061374801F094F801224D
:100FAC004FF40061344801F08EF801224FF4805167
:100FBC00314801F088F801224FF400512E4801F01D
:100FCC0082F854E0002280212B4801F07CF80022AA
:100FDC004FF48071284801F076F800224FF400712C
:100FEC00254801F070F800224FF48061224801F08E
:100FFC006AF800224FF400611F4801F064F80022E7
:10100C004FF480511C4801F05EF800224FF400515F
:10101C00194801F058F82AE000228021164801F006
:10102C0052F800224FF48071134801F04CF8002262
:10103C004FF40071104801F046F800224FF4806123
:10104C000D4801F040F801224FF400610A4801F00C
:10105C003AF800224FF48051074801F034F800228E
:10106C004FF40051044801F02EF800E000BF00BF1F
:10107C000837BD4680BD00BF0008014080B582B076
:10108C0000AF0346FB71FB79032B4BD801A252F83E
:10109C0023F000BFB1100008D11000081111000896
:1010AC00F110000801222021214801F00CF8012246
:1010BC0010211F4801F007F8012208211C4801F0FB
:1010CC0002F830E001222021194800F0FCFF012237
:1010DC001021174800F0F7FF00220821144800F0F7
:1010EC00F2FF20E001222021114800F0ECFF002249
:1010FC0010210F4800F0E7FF012208210C4800F0F6
:10110C00E2FF10E000222021094800F0DCFF012260
:10111C001021074800F0D7FF01220821044800F0F5
:10112C00D2FF00E000BF00BF0837BD4680BD00BF46
:10113C00000C014080B582B000AF0346FB71FB7917
:10114C00032B4FD801A252F823F000BF69110008FD
:10115C008B110008CF110008AD11000801224FF4CB
:10116C008071234800F0AFFF01228021204800F05D
:10117C00AAFF012240211E4800F0A5FF33E0012206
:10118C004FF480711A4800F09EFF0122802118480C
:10119C0000F099FF00224021154800F094FF22E056
:1011AC0001224FF48071124800F08DFF0022802143
:1011BC000F4800F088FF012240210D4800F083FF0A
:1011CC0011E000224FF48071094800F07CFF0122ED
:1011DC008021074800F077FF01224021044800F0ED
:1011EC0072FF00E000BF00BF0837BD4680BD00BFE6
:1011FC00000C014080B582B000AF0346FB71FB7957
:10120C00032B23D0032B5DDC012B3DD0022B59D1BA
:10121C00012208212E4800F056FF012210212C48F3
:10122C0000F051FF01224021294800F04CFF01221F
:10123C008021274800F047FF2021254800F05BFF64
:10124C004FF48071224800F056FF3CE00122082147
:10125C001F4800F038FF012220211D4800F033FF09
:10126C00012240211A4800F02EFF01224FF4807118
:10127C00174800F028FF1021154800F03CFF802192
:10128C00134800F038FF1EE001221021104800F036
:10129C001AFF012220210E4800F015FF01228021A7
:1012AC000B4800F010FF01224FF48071084800F049
:1012BC000AFF0821064800F01EFF4021044800F0F8
:1012CC001AFF00E000BF00BF0837BD4680BD00BF5D
:1012DC00000C014080B500AF00224FF400710548AE
:1012EC0000F0F1FE01224FF48061024800F0EBFEA9
:1012FC0000BF80BD000C014080B500AF01224FF44F
:10130C000071054800F0DFFE00224FF480610248B6
:10131C0000F0D9FE00BF80BD000C014080B500AFCD
:10132C0000224FF40061054800F0CDFE01224FF47D
:10133C008051024800F0C7FE00BF80BD000C014088
:10134C0080B500AF01224FF40061054800F0BBFEF0
:10135C0000224FF48051024800F0B5FE00BF80BD62
:10136C00000C014080B582B000AF78603960FFF7A7
:10137C00B1FF7B680C4A82FB03129210DB17D31A65
:10138C001846FFF71FFBFFF7C9FF3B68064A82FBB5
:10139C0003129210DB17D31A1846FFF7A3FC00BFF9
:1013AC000837BD4680BD00BF6766666680B582B0F3
:1013BC0000AF78603960FFF79FFF7A68114B83FBB1
:1013CC0002139910D317C91A0B469B000B445B00F0
:1013DC00D11A0846FFF7F6FAFFF7B2FF3A68094B45
:1013EC0083FB02139910D317C91A0B469B000B44AD
:1013FC005B00D11A0846FFF775FC00BF0837BD46E5
:10140C0080BD00BF6766666680B500AF00F05AFB12
:10141C0000F02AF800F0B0F800F062F80E4801F085
:10142C00AFFAFFF773FA0020FFF728FE0020FFF752
:10143C0081FE64226421094800F084F90122002114
:10144C00074800F07FF919220021064800F07AF9CC
:10145C0000F022FAFCE700BF10010020BD020008DA
:10146C00E50200089908000880B590B000AF07F1BC
:10147C00180328220021184601F048FE3B1D0022CB
:10148C001A605A609A60DA601A610223BB61012308
:10149C00BB621023FB6200237B6307F11803184621
:1014AC0000F042FE0346002B01D000F0D3F80F23CE
:1014BC007B600023BB600023FB6000233B610023A7
:1014CC007B613B1D0021184601F0AEF80346002B52
:1014DC0001D000F0BFF800BF4037BD4680BD000012
:1014EC0080B586B000AF07F1080300221A605A607D
:1014FC009A60DA603B4600221A605A601D4B4FF02E
:10150C0080421A601B4B41F63F725A60194B002205
:10151C009A60184B0922DA60164B00221A61154B9F
:10152C0000229A61134801F0DBF90346002B01D02D
:10153C0000F090F84FF48053BB6007F10803194694
:10154C000C4801F059FB0346002B01D000F082F847
:10155C0000233B6000237B603B461946054801F0A5
:10156C0031FD0346002B01D000F074F800BF183792
:10157C00BD4680BD1001002080B586B000AF07F1DC
:10158C00080300221A605A609A60DA60284B9B6943
:10159C00274A43F004039361254B9B6903F0040332
:1015AC007B607B68224B9B69214A43F00803936163
:1015BC001F4B9B6903F008033B603B68002243F61A
:1015CC00FF711C4800F07FFD002241F6F8711A48AB
:1015DC0000F079FD43F6FF73BB600123FB60002331
:1015EC003B6102237B6107F108031946114800F0A7
:1015FC00D9FB0723BB600023FB6001233B6107F190
:10160C00080319460C4800F0CDFB41F6F873BB609B
:10161C000123FB6000233B6102237B6107F108037C
:10162C001946054800F0BEFB00BF1837BD4680BD0B
:10163C000010024000080140000C014080B582B04F
:10164C0000AF7860FEF78CFD00F00AF800BF083799
:10165C00BD4680BD80B400AF72B600BFFEE700008F
:10166C0080B400AF084B5B68002B09D0064B1B689D
:10167C009B68002B04D0044B1B689A68013A9A6053
:10168C0000BFBD4680BC70475801002080B487B0B5
:10169C0000AF78602A4B5B681F2B4CDC284B5B68D7
:1016AC00002B08D1264A7B681360254B5B680133FD
:1016BC00234A536040E0224B1B687B6100233B6153
:1016CC000023FB6033E07B69002B12D07B689A68A7
:1016DC007B699B689A420CD37B689A687B699B6890
:1016EC00D21A7B689A607B693B617B691B697B6161
:1016FC001DE07B687A691A613B69002B03D03B695A
:10170C007A681A6102E00E4A7B6813607B69002BD1
:10171C0006D07B699A687B689B68D21A7B699A6051
:10172C00074B5B680133064A53600123FB60FB687F
:10173C00002BC8D000E000BF1C37BD4680BC7047F2
:10174C005801002080B586B000AFF860B9607A60AF
:10175C00142001F0CBFC03467B617B69BA689A606C
:10176C007B697A68DA600B4B1B680133094A13609A
:10177C00084B1B68DAB27B695A607B69FA681A609D
:10178C007B6900221A617869FFF780FF00BF183768
:10179C00BD4680BDE800002080B584B000AF786005
:1017AC003C4B5B68002B70D03A4B1B68FB600023F2
:1017BC00BB6066E0FB685B687A689A425CD1BB6888
:1017CC00002B11D1FB681B69002B0DD1F86801F0BF
:1017DC0095FC304B00221A602E4B5B68013B2D4A66
:1017EC0053600023FB604CE0BB68002B17D1FB68F7
:1017FC001B699968FB689A68FB681B690A449A60C4
:10180C00FB681B69234A1360F86801F077FC214BD5
:10181C005B68013B1F4A53600023FB6031E0FB68AF
:10182C001B69002B0DD1F86801F068FCBB68002225
:10183C001A61184B5B68013B164A53600023FB602E
:10184C001FE0FB681B699968FB689A68FB681B6959
:10185C000A449A60FB681A69BB681A61FB6800222B
:10186C001A61F86801F04AFC0A4B5B68013B094AB3
:10187C0053600023FB6004E0FB68BB60FB681B69E2
:10188C00FB60FB68002B95D100E000BF1037BD4614
:10189C0080BD00BF5801002080B500AF1AE0134B8B
:1018AC001B681B689847114B1B68DB68002B0BD01F
:1018BC000E4B1B6818680D4B1B68D9680B4B1B68CB
:1018CC00DB681A46FFF73EFF084B1B685B6818463F
:1018DC00FFF762FF054B5B68002B04D0034B1B68C2
:1018EC009B68002BDBD000BF80BD00BF58010020DF
:1018FC0080B485B000AF154B9B69144A43F00103CB
:10190C009361124B9B6903F00103BB60BB680F4BE7
:10191C00DB690E4A43F08053D3610C4BDB6903F057
:10192C0080537B607B680A4B5B68FB60FB6823F031
:10193C00E063FB60FB6843F08063FB60044AFB6878
:10194C00536000BF1437BD4680BC70470010024086
:10195C000000014080B584B000AF78607B681B68E4
:10196C00B3F1804F13D10C4BDB690B4A43F00103ED
:10197C00D361094BDB6903F00103FB60FB680022B8
:10198C0000211C2000F0D7F91C2000F0F0F900BF5A
:10199C001037BD4680BD00BF0010024080B400AFC0
:1019AC00FEE780B400AFFEE780B400AFFEE780B482
:1019BC0000AFFEE780B400AFFEE780B400AF00BF1D
:1019CC00BD4680BC704780B400AF00BFBD4680BC34
:1019DC00704780B400AF00BFBD4680BC704780B577
:1019EC0000AF00F0B5F800BF80BD000080B500AFBF
:1019FC00024801F011F800BF80BD00BF10010020AB
:101A0C0080B586B000AF7860144A154BD31A7B6151
:101A1C007B693B61134B1B68002B02D1114B124AA3
:101A2C001A60104B1A687B6813443A699A4207D2C1
:101A3C0001F032FB03460C221A604FF0FF3309E031
:101A4C00084B1B68FB60074B1A687B681344054AFC
:101A5C001360FB6818461837BD4680BD002800206F
:101A6C0000040000EC0000207801002080B400AFDE
:101A7C0000BFBD4680BC7047FFF7F8FF0B480C4910
:101A8C000C4A002302E0D458C4500433C4188C42CE
:101A9C00F9D3094A094C002301E013600432A24235
:101AAC00FBD301F0FFFAFFF7AFFC704700000020FA
:101ABC00B8000020F4320008B800002074010020A7
:101ACC00FEE7000080B500AF084B1B68074A43F0E7
:101ADC0010031360032000F023F90F2000F008F826
:101AEC00FFF706FF0023184680BD00BF0020024010
:101AFC0080B582B000AF7860124B1A68124B1B781D
:101B0C0019464FF47A73B3FBF1F3B2FBF3F31846B7
:101B1C0000F03BF90346002B01D001230EE07B685B
:101B2C000F2B0AD8002279684FF0FF3000F003F930
:101B3C00064A7B681360002300E00123184608372F
:101B4C00BD4680BD48000020500000204C00002005
:101B5C0080B400AF054B1B781A46054B1B68134429
:101B6C00034A136000BFBD4680BC70475000002084
:101B7C006001002080B400AF024B1B681846BD46C4
:101B8C0080BC70476001002080B485B000AF7860E5
:101B9C007B6803F00703FB600C4BDB68BB60BA6827
:101BAC004FF6FF031340BB60FB681A02BB6813437C
:101BBC0043F0BF6343F40033BB60044ABB68D3609B
:101BCC0000BF1437BD4680BC704700BF00ED00E07D
:101BDC0080B400AF044BDB681B0A03F00703184604
:101BEC00BD4680BC704700BF00ED00E080B483B000
:101BFC0000AF0346FB7197F90730002B0BDBFB7929
:101C0C0003F01F02064997F907305B09012000FA1F
:101C1C0002F241F8232000BF0C37BD4680BC704750
:101C2C0000E100E080B483B000AF03463960FB7183
:101C3C0097F90730002B0ADB3B68DAB20C4997F9AD
:101C4C0007301201D2B20B4483F800230AE03B6840
:101C5C00DAB20849FB7903F00F03043B1201D2B24C
:101C6C000B441A7600BF0C37BD4680BC704700BFD2
:101C7C0000E100E000ED00E080B489B000AFF86056
:101C8C00B9607A60FB6803F00703FB61FB69C3F181
:101C9C000703042B28BF0423BB61FB690433062B09
:101CAC0002D9FB69033B00E000237B614FF0FF325C
:101CBC00BB6902FA03F3DA43BB681A407B699A40AA
:101CCC004FF0FF317B6901FA03F3D9437B680B407A
:101CDC00134318462437BD4680BC704780B582B08C
:101CEC0000AF78607B68013BB3F1807F01D30123A7
:101CFC000FE00A4A7B68013B53600F214FF0FF3025
:101D0C00FFF790FF054B00229A60044B07221A60E4
:101D1C00002318460837BD4680BD00BF10E000E028
:101D2C0080B582B000AF78607868FFF72DFF00BFF8
:101D3C000837BD4680BD80B586B000AF0346B9609C
:101D4C007A60FB7300237B61FFF742FF78617A684E
:101D5C00B9687869FFF790FF024697F90F30114682
:101D6C001846FFF75FFF00BF1837BD4680BD80B532
:101D7C0082B000AF0346FB7197F907301846FFF7A6
:101D8C0035FF00BF0837BD4680BD80B582B000AFBF
:101D9C0078607868FFF7A2FF034618460837BD46FF
:101DAC0080BD000080B48BB000AF78603960002338
:101DBC007B6200233B6248E101227B6A02FA03F357
:101DCC00FB613B681B68FA691340BB61BA69FB692C
:101DDC009A4240F037813B685B68A34A93425ED0DD
:101DEC00A14A934275D8A14A934258D09F4A934234
:101DFC006FD89F4A934252D09D4A934269D89D4ACC
:101E0C0093424CD09B4A934263D89B4A934246D010
:101E1C00994A93425DD8122B2AD8122B59D801A279
:101E2C0052F823F0AB1E0008851E0008971E000810
:101E3C00D91E0008DF1E0008DF1E0008DF1E000888
:101E4C00DF1E0008DF1E0008DF1E0008DF1E000872
:101E5C00DF1E0008DF1E0008DF1E0008DF1E000862
:101E6C00DF1E0008DF1E00088D1E0008A11E0008E2
:101E7C00824A934213D02CE03B68DB683B6229E03A
:101E8C003B68DB6804333B6224E03B68DB68083367
:101E9C003B621FE03B68DB680C333B621AE03B683B
:101EAC009B68002B02D104233B6213E03B689B68C8
:101EBC00012B05D108233B627B68FA691A6109E0A2
:101ECC0008233B627B68FA695A6103E000233B629A
:101EDC0000E000BFBB69FF2B01D87B6801E07B6889
:101EEC0004337B61BB69FF2B02D87B6A9B0002E049
:101EFC007B6A083B9B003B617B691A680F213B693D
:101F0C0001FA03F3DB431A40396A3B6901FA03F324
:101F1C001A437B691A603B685B6803F08053002BA3
:101F2C0000F09080564B9B69554A43F00103936136
:101F3C00534B9B6903F00103BB60BB68514A7B6A3E
:101F4C009B08023352F82330FB607B6A03F00303D7
:101F5C009B000F2202FA03F3DB43FA681340FB6089
:101F6C007B68494A93420DD07B68484A934207D01C
:101F7C007B68474A934201D1022304E0032302E029
:101F8C00012300E000237A6A02F0030292009340DE
:101F9C00FA681343FB603B497B6A9B080233FA687F
:101FAC0041F823203B685B6803F48013002B06D0B8
:101FBC00384B9A683749BB6913438B6006E0354B45
:101FCC009A68BB69DB43334913408B603B685B68A1
:101FDC0003F40013002B06D02E4BDA682D49BB6995
:101FEC001343CB6006E02B4BDA68BB69DB43294912
:101FFC001340CB603B685B6803F40033002B06D0C6
:10200C00244B5A682349BB6913434B6006E0214BB0
:10201C005A68BB69DB431F4913404B603B685B68E4
:10202C0003F48033002B06D01A4B1A681949BB698C
:10203C0013430B6006E0174B1A68BB69DB43154969
:10204C0013400B607B6A01337B623B681A687B6AC6
:10205C0022FA03F3002B7FF4AFAE00BF00BF2C3786
:10206C00BD4680BC704700BF00003210000031102C
:10207C0000002210000021100000121000001110AE
:10208C00001002400000014000080140000C01401B
:10209C00001001400004014080B485B000AF7860AE
:1020AC000B467B807B689A687B881340002B02D0A0
:1020BC000123FB7301E00023FB73FB7B18461437F1
:1020CC00BD4680BC704780B483B000AF78600B46CF
:1020DC007B8013467B707B78002B03D07A887B68DF
:1020EC001A6103E07B881A047B681A6100BF0C3705
:1020FC00BD4680BC704780B485B000AF78600B469D
:10210C007B807B68DB68FB607A88FB6813401A0471
:10211C00FB68D9437B880B401A437B681A6100BF6C
:10212C001437BD4680BC704780B586B000AF786070
:10213C007B68002B01D101236CE27B681B6803F0E8
:10214C000103002B00F08780924B5B6803F00C03BB
:10215C00042B0CD08F4B5B6803F00C03082B12D1B3
:10216C008C4B5B6803F48033B3F5803F0BD1894B08
:10217C001B6803F40033002B6CD07B685B68002B6E
:10218C0068D1012346E27B685B68B3F5803F06D1DA
:10219C00804B1B687F4A43F4803313602EE07B68CE
:1021AC005B68002B0CD17B4B1B687A4A23F4803381
:1021BC001360784B1B68774A23F4802313601DE06F
:1021CC007B685B68B3F5A02F0CD1724B1B68714A0E
:1021DC0043F4802313606F4B1B686E4A43F48033C7
:1021EC0013600BE06B4B1B686A4A23F4803313605B
:1021FC00684B1B68674A23F4802313607B685B6819
:10220C00002B13D0FFF7B6FC386108E0FFF7B2FCE7
:10221C0002463B69D31A642B01D90323FAE15D4BC7
:10222C001B6803F40033002BF0D014E0FFF7A2FC82
:10223C00386108E0FFF79EFC02463B69D31A642B19
:10224C0001D90323E6E1534B1B6803F40033002B45
:10225C00F0D100E000BF7B681B6803F00203002B89
:10226C0063D04C4B5B6803F00C03002B0BD0494B39
:10227C005B6803F00C03082B1CD1464B5B6803F422
:10228C008033002B16D1434B1B6803F00203002B49
:10229C0005D07B681B69012B01D00123BAE13D4BB2
:1022AC001B6823F0F8027B685B69DB003949134338
:1022BC000B603AE07B681B69002B20D0364B012267
:1022CC001A60FFF757FC386108E0FFF753FC024631
:1022DC003B69D31A022B01D903239BE12D4B1B68BD
:1022EC0003F00203002BF0D02A4B1B6823F0F802FA
:1022FC007B685B69DB00274913430B6015E0264BB9
:10230C0000221A60FFF736FC386108E0FFF732FC58
:10231C0002463B69D31A022B01D903237AE11D4BE8
:10232C001B6803F00203002BF0D17B681B6803F0E1
:10233C000803002B3AD07B689B69002B19D0174BF4
:10234C0001221A60FFF716FC386108E0FFF712FC57
:10235C0002463B69D31A022B01D903235AE10D4BD8
:10236C005B6A03F00203002BF0D0012000F09AFA14
:10237C001CE00A4B00221A60FFF7FCFB38610FE0EF
:10238C00FFF7F8FB02463B69D31A022B08D903234B
:10239C0040E100BF00100240000042428004424273
:1023AC009E4B5B6A03F00203002BE9D17B681B6830
:1023BC0003F00403002B00F0A6800023FB75974B61
:1023CC00DB6903F08053002B0DD1944BDB69934AEE
:1023DC0043F08053D361914BDB6903F08053BB60B6
:1023EC00BB680123FB758E4B1B6803F48073002BB9
:1023FC0018D18B4B1B688A4A43F480731360FFF728
:10240C00B9FB386108E0FFF7B5FB02463B69D31A0C
:10241C00642B01D90323FDE0814B1B6803F480730B
:10242C00002BF0D07B68DB68012B06D17B4B1B6A41
:10243C007A4A43F0010313622DE07B68DB68002BC2
:10244C000CD1764B1B6A754A23F001031362734B54
:10245C001B6A724A23F0040313621CE07B68DB687E
:10246C00052B0CD16D4B1B6A6C4A43F004031362B1
:10247C006A4B1B6A694A43F0010313620BE0674B1A
:10248C001B6A664A23F001031362644B1B6A634A9E
:10249C0023F0040313627B68DB68002B15D0FFF775
:1024AC0069FB38610AE0FFF765FB02463B69D31A0A
:1024BC0041F28832934201D90323ABE0574B1B6A9C
:1024CC0003F00203002BEED014E0FFF753FB38614E
:1024DC000AE0FFF74FFB02463B69D31A41F2883200
:1024EC00934201D9032395E04C4B1B6A03F0020382
:1024FC00002BEED1FB7D012B05D1484BDB69474A04
:10250C0023F08053D3617B68DB69002B00F0818062
:10251C00424B5B6803F00C03082B61D07B68DB69D2
:10252C00022B46D13F4B00221A60FFF723FB386188
:10253C0008E0FFF71FFB02463B69D31A022B01D9B7
:10254C00032367E0354B1B6803F00073002BF0D1BD
:10255C007B681B6AB3F5803F08D1304B5B6823F472
:10256C0000327B689B682D4913434B602B4B5B6897
:10257C0023F474127B68196A7B685B6A0B432749E6
:10258C0013434B60274B01221A60FFF7F3FA3861B3
:10259C0008E0FFF7EFFA02463B69D31A022B01D988
:1025AC00032337E01D4B1B6803F00073002BF0D0A6
:1025BC002FE01C4B00221A60FFF7DCFA386108E0B0
:1025CC00FFF7D8FA02463B69D31A022B01D9032331
:1025DC0020E0124B1B6803F00073002BF0D118E0C5
:1025EC007B68DB69012B01D1012313E00B4B5B688A
:1025FC00FB60FB6803F480327B681B6A9A4206D14D
:10260C00FB6803F470127B685B6A9A4201D0012369
:10261C0000E0002318461837BD4680BD001002406C
:10262C00007000406000424280B584B000AF78601A
:10263C0039607B68002B01D10123D0E06A4B1B6809
:10264C0003F007033A689A4210D9674B1B6823F0D2
:10265C00070265493B6813430B60634B1B6803F02F
:10266C0007033A689A4201D00123B8E07B681B68E3
:10267C0003F00203002B20D07B681B6803F00403DB
:10268C00002B05D0594B5B68584A43F4E063536008
:10269C007B681B6803F00803002B05D0534B5B6869
:1026AC00524A43F460535360504B5B6823F0F00282
:1026BC007B689B684D4913434B607B681B6803F038
:1026CC000103002B40D07B685B68012B07D1474B83
:1026DC001B6803F40033002B15D101237FE07B68CA
:1026EC005B68022B07D1414B1B6803F00073002B76
:1026FC0009D1012373E03D4B1B6803F00203002B4F
:10270C0001D101236BE0394B5B6823F003027B683A
:10271C005B68364913434B60FFF72CFAF8600AE00C
:10272C00FFF728FA0246FB68D31A41F2883293422B
:10273C0001D9032353E02D4B5B6803F00C027B683B
:10274C005B689B009A42EBD1274B1B6803F0070395
:10275C003A689A4210D2244B1B6823F00702224994
:10276C003B6813430B60204B1B6803F007033A686C
:10277C009A4201D0012332E07B681B6803F004030A
:10278C00002B08D0194B5B6823F4E0627B68DB6894
:10279C00164913434B607B681B6803F00803002B3E
:1027AC0009D0124B5B6823F460527B681B69DB0019
:1027BC000E4913434B6000F021F802460B4B5B684B
:1027CC001B0903F00F030A49CB5C22FA03F3094AF5
:1027DC001360094B1B681846FFF78AF9002318464B
:1027EC001037BD4680BD00BF0020024000100240E3
:1027FC00C8320008480000204C00002080B487B08C
:10280C0000AF0023FB600023BB6000237B6100232F
:10281C007B6000233B611E4B5B68FB60FB6803F035
:10282C000C03042B02D0082B03D027E0194B3B617F
:10283C0027E0FB689B0C03F00F03174AD35C7B600B
:10284C00FB6803F48033002B10D0114B5B685B0CDE
:10285C0003F00103114AD35CBB607B680D4A02FB99
:10286C0003F2BB68B2FBF3F37B6104E07B680C4AB8
:10287C0002FB03F37B617B693B6102E0054B3B612F
:10288C0000BF3B6918461C37BD4680BC704700BF73
:10289C000010024000127A00D8320008E83200081A
:1028AC0000093D0080B485B000AF78600A4B1B680E
:1028BC000A4AA2FB03235B0A7A6802FB03F3FB6060
:1028CC0000BFFB685A1EFA60002BF9D100BF00BF95
:1028DC001437BD4680BC704748000020D34D6210B1
:1028EC0080B582B000AF78607B68002B01D10123EA
:1028FC0041E07B6893F83D30DBB2002B06D17B685E
:10290C00002283F83C207868FFF724F87B680222C9
:10291C0083F83D207B681A687B680433194610469F
:10292C0000F056FA7B68012283F846207B6801226E
:10293C0083F83E207B68012283F83F207B680122CC
:10294C0083F840207B68012283F841207B680122B8
:10295C0083F842207B68012283F843207B680122A4
:10296C0083F844207B68012283F845207B68012290
:10297C0083F83D20002318460837BD4680BD000073
:10298C0080B485B000AF78607B6893F83D30DBB2E3
:10299C00012B01D0012335E07B68022283F83D2016
:1029AC007B681B68DA687B681B6842F00102DA609E
:1029BC007B681B68164A934209D07B681B68B3F18D
:1029CC00804F04D07B681B68124A934211D17B68FC
:1029DC001B689B6803F00703FB60FB68062B10D099
:1029EC007B681B681A687B681B6842F001021A60DE
:1029FC0007E07B681B681A687B681B6842F0010261
:102A0C001A60002318461437BD4680BC704700BFBF
:102A1C00002C01400004004080B584B000AF786009
:102A2C007B681B68DB68FB607B681B681B69BB6091
:102A3C00BB6803F00203002B20D0FB6803F00203F9
:102A4C00002B1BD07B681B686FF002021A617B683D
:102A5C0001221A777B681B689B6903F00303002B28
:102A6C0003D0786800F098F905E0786800F08BF9ED
:102A7C00786800F09AF97B6800221A77BB6803F03B
:102A8C000403002B20D0FB6803F00403002B1BD0A5
:102A9C007B681B686FF004021A617B6802221A774C
:102AAC007B681B689B6903F44073002B03D0786828
:102ABC0000F072F905E0786800F065F9786800F0CC
:102ACC0074F97B6800221A77BB6803F00803002BAB
:102ADC0020D0FB6803F00803002B1BD07B681B681D
:102AEC006FF008021A617B6804221A777B681B68F6
:102AFC00DB6903F00303002B03D0786800F04CF97A
:102B0C0005E0786800F03FF9786800F04EF97B68D2
:102B1C0000221A77BB6803F01003002B20D0FB684F
:102B2C0003F01003002B1BD07B681B686FF01002A6
:102B3C001A617B6808221A777B681B68DB6903F4CF
:102B4C004073002B03D0786800F026F905E0786814
:102B5C0000F019F9786800F028F97B6800221A77E0
:102B6C00BB6803F00103002B0CD0FB6803F00103DE
:102B7C00002B07D07B681B686FF001021A61786824
:102B8C00FEF75CFDBB6803F08003002B0CD0FB68E8
:102B9C0003F08003002B07D07B681B686FF080026A
:102BAC001A61786800F06FFABB6803F04003002BE1
:102BBC000CD0FB6803F04003002B07D07B681B682C
:102BCC006FF040021A61786800F0F8F8BB6803F007
:102BDC002003002B0CD0FB6803F02003002B07D044
:102BEC007B681B686FF020021A61786800F042FA6B
:102BFC0000BF1037BD4680BD80B584B000AF786093
:102C0C0039600023FB737B6893F83C30012B01D1B6
:102C1C000223B4E07B68012283F83C207B6802220B
:102C2C0083F83D207B681B689B68BB60BB6823F006
:102C3C007703BB60BB6823F47F43BB607B681B6876
:102C4C00BA689A603B681B68B3F5005F3ED0B3F579
:102C5C00005F00F28780B3F5805F00F08680B3F5EB
:102C6C00805F7FD8702B1AD0702B7BD8602B50D004
:102C7C00602B77D8502B3CD0502B73D8402B58D08E
:102C8C00402B6FD8302B64D0302B6BD8202B60D0DE
:102C9C00202B67D8002B5CD0102B5AD062E07B68BD
:102CAC0018683B6899683B685A683B68DB6800F0B9
:102CBC006AF97B681B689B68BB60BB6843F0770351
:102CCC00BB607B681B68BA689A604FE07B681868C9
:102CDC003B6899683B685A683B68DB6800F053F9BD
:102CEC007B681B689A687B681B6842F480429A6018
:102CFC003CE07B6818683B6859683B68DB681A469F
:102D0C0000F0CAF87B681B685021184600F021F9C6
:102D1C002CE07B6818683B6859683B68DB681A468E
:102D2C0000F0E8F87B681B686021184600F011F988
:102D3C001CE07B6818683B6859683B68DB681A467E
:102D4C0000F0AAF87B681B684021184600F001F9D6
:102D5C000CE07B681A683B681B681946104600F04B
:102D6C00F8F803E00123FB7300E000BF7B6801224D
:102D7C0083F83D207B68002283F83C20FB7B1846BF
:102D8C001037BD4680BD80B483B000AF786000BF03
:102D9C000C37BD4680BC704780B483B000AF786000
:102DAC0000BF0C37BD4680BC704780B483B000AF09
:102DBC00786000BF0C37BD4680BC704780B483B0D0
:102DCC0000AF786000BF0C37BD4680BC7047000078
:102DDC0080B485B000AF786039607B681B68FB609D
:102DEC007B682B4A934207D07B68B3F1804F03D0AA
:102DFC007B68284A934208D1FB6823F07003FB6080
:102E0C003B685B68FA681343FB607B68204A93421B
:102E1C0007D07B68B3F1804F03D07B681D4A934287
:102E2C0008D1FB6823F44073FB603B68DB68FA68ED
:102E3C001343FB60FB6823F080023B685B69134320
:102E4C00FB607B68FA681A603B689A687B68DA6298
:102E5C003B681A687B689A627B680D4A934203D17F
:102E6C003B681A697B681A637B6801225A617B682C
:102E7C001B6903F00103002B05D07B681B6923F051
:102E8C0001027B681A6100BF1437BD4680BC7047D5
:102E9C00002C01400004004080B487B000AFF86003
:102EAC00B9607A60FB681B6A7B61FB681B6A23F064
:102EBC000102FB681A62FB689B693B613B6923F06A
:102ECC00F0033B617B681B013A6913433B617B69EF
:102EDC0023F00A037B617A69BB6813437B61FB684F
:102EEC003A699A61FB687A691A6200BF1C37BD4661
:102EFC0080BC704780B487B000AFF860B9607A606E
:102F0C00FB681B6A7B61FB681B6A23F01002FB6881
:102F1C001A62FB689B693B613B6923F470433B611C
:102F2C007B681B033A6913433B617B6923F0A00365
:102F3C007B61BB681B017A6913437B61FB683A694F
:102F4C009A61FB687A691A6200BF1C37BD4680BC67
:102F5C00704780B485B000AF786039607B689B683F
:102F6C00FB60FB6823F07003FB603A68FB6813435B
:102F7C0043F00703FB607B68FA689A6000BF143764
:102F8C00BD4680BC704780B487B000AFF860B960B4
:102F9C007A603B60FB689B687B617B6923F47F43B1
:102FAC007B613B681A027B681A43BB6813437A69DE
:102FBC0013437B61FB687A699A6000BF1C37BD467E
:102FCC0080BC704780B485B000AF786039607B6896
:102FDC0093F83C30012B01D1022341E07B680122A4
:102FEC0083F83C207B68022283F83D207B681B68B9
:102FFC005B68FB607B681B689B68BB60FB6823F0AD
:10300C007003FB603B681B68FA681343FB607B68CA
:10301C001B68FA685A607B681B68144A934209D093
:10302C007B681B68B3F1804F04D07B681B68104A27
:10303C0093420CD1BB6823F08003BB603B685B6898
:10304C00BA681343BB607B681B68BA689A607B687C
:10305C00012283F83D207B68002283F83C2000236A
:10306C0018461437BD4680BC704700BF002C014089
:10307C000004004080B483B000AF786000BF0C3710
:10308C00BD4680BC704780B483B000AF786000BF91
:10309C000C37BD4680BC7047014B1868704700BFA9
:1030AC005400002070B500260C4D0D4C641BA41070
:1030BC00A64209D100F0F6F800260A4D0A4C641B12
:1030CC00A410A64205D170BD55F8043B98470136B3
:1030DC00EEE755F8043B98470136F2E7EC3200086E
:1030EC00EC320008EC320008F0320008024B0146CA
:1030FC00186800F05FB800BF54000020024B014676
:10310C00186800F00BB800BF5400002003460244BE
:10311C00934200D1704703F8011BF9E738B5054617
:10312C00002943D051F8043C0C1F002BB8BFE41805
:10313C0000F0AAF81E4A1368104633B96360146095
:10314C002846BDE8384000F0A5B8A3420AD921684A
:10315C006218934201BF1A685B6852182260636060
:10316C000460EDE71A465B680BB1A342FAD911680B
:10317C005018A0420BD120680144501883421160B2
:10318C00DED118685B68014411605360D8E702D93E
:10319C000C232B60D4E7206821188B4201BF1968DF
:1031AC005B680918216063605460C9E738BD00BFD3
:1031BC00F0000020F8B5CD1C25F0030508350C2DCA
:1031CC0038BF0C25002D064601DBA94203D90C2380
:1031DC0033600020F8BD00F057F821490A68144606
:1031EC009CB9204F3B6823B92146304600F03CF88F
:1031FC0038602946304600F037F8431C23D10C23A5
:10320C003046336000F046F8E3E723685B1B17D4C5
:10321C000B2B03D923601C44256004E06368A24295
:10322C000CBF0B605360304600F034F804F10B0017
:10323C00231D20F00700C21ACCD01B1AA350C9E7DB
:10324C0022466468CCE7C41C24F00304A042E3D0FB
:10325C00211A304600F008F80130DDD1CFE700BF6D
:10326C00F0000020F400002038B50023054D044682
:10327C0008462B60FEF7C4FB431C02D12B6803B13C
:10328C00236038BD64010020014800F009B800BF7C
:10329C006C010020014800F004B800BF6C01002054
:1032AC0070477047F8B500BFF8BC08BC9E46704725
:0C32BC00F8B500BFF8BC08BC9E46704787
:1032C80000000000000000000102030406070809CE
:1032D80002030405060708090A0B0C0D0E0F10104F
:0432E80001020000DF
:0432EC0031010008A4
:0432F0000D010008C4
:1032F40001000000010000000100000001000000C6
:1033040001000000010000000100000001000000B5
:1033140001000000010000000100000001000000A5
:103324006400000064000000640000000500000068
:10333400030000000200000000127A0010000000E8
:103344000100000058000020000000000000000000
:103354000000000000000000000000000000000069
:103364000000000000000000000000000000000059
:103374000000000000000000000000000000000049
:103384000000000000000000000000000000000039
:103394000000000000000000000000000000000029
:0833A400000000000000000021
:0400000508001A8550
:00000001FF
