:020000040800F2
:1000000000280020C11B0008511B0008571B0008D6
:100010005D1B0008631B0008691B0008000000004E
:100020000000000000000000000000006F1B00083E
:100030007B1B000800000000871B0008931B0008C2
:10004000091C0008091C0008091C0008091C0008FC
:10005000091C0008091C0008091C0008091C0008EC
:10006000091C0008091C0008091C0008091C0008DC
:10007000091C0008091C0008091C0008091C0008CC
:10008000091C0008091C0008091C0008091C0008BC
:10009000091C0008091C0008091C0008091C0008AC
:1000A000091C0008091C0008091C0008091C00089C
:1000B000A11B0008091C000800000000091C000822
:1000C000091C00080000000000000000091C0008D6
:1000D00000000000091C0008091C000800000000C6
:1000E000091C0008091C0008091C00080000000089
:1000F0000000000000000000000000000000000000
:0C01000000000000000000005FF808F1A3
:10010C0010B5054C237833B9044B13B10448AFF345
:10011C0000800123237010BD54000020000000005B
:10012C003832000808B5034B1BB103490348AFF341
:10013C00008008BD00000000580000203832000884
:10014C0080B483B000AF7860044A7B68012142F828
:10015C00231000BF0C37BD4680BC704770000020D8
:10016C0080B582B000AF00237B6073E03D4A7B68B2
:10017C0052F823203C497B6841F823203B4A7B689A
:10018C0052F8232037497B6841F823200121384855
:10019C0002F020F803461A46344B1A600221344808
:1001AC0002F018F803461A46304B5A6004213048C6
:1001BC0002F010F803461A462C4B9A60294A7B68C9
:1001CC0052F8232029497B6851F823309A423ED1BA
:1001DC00244A7B6852F8232023497B6851F823304A
:1001EC009A4234D1214A7B6852F8232021497B68FA
:1001FC0051F823309A4216D01C4A7B6852F82320BF
:10020C001C497B6841F82320184A7B6852F823303C
:10021C00002B1CD17868FFF793FF174A7B68642189
:10022C0042F8231013E0144A7B6852F823305A1E0C
:10023C0011497B6841F823200F4A7B6852F8233020
:10024C00002B04DC0B4A7B68012142F823107B68ED
:10025C0001337B607B68022B88DD00BF00BF083751
:10026C00BD4680BD0C0000201800002000000020BE
:10027C00000C0140240000203000002080B483B02A
:10028C0000AF7860094A7B6852F82330012B06D105
:10029C00064A7B68002142F82310012300E000236A
:1002AC0018460C37BD4680BC704700BF700000205C
:1002BC0080B500AF954B1B78012B40F02481944BFB
:1002CC001B78032B62D801A252F823F0E902000834
:1002DC00F70200082D030008630300088C4B012271
:1002EC001A70642001F06AFA57E0012000F088FFD0
:1002FC00884B1B68012B4BD1874B1B68013B864AF3
:10030C001360854B1B68002B06DC844B1B68824AF0
:10031C0013607F4B02221A70642001F04FFA37E011
:10032C00022000F06DFF7B4B1B68012B32D17A4B06
:10033C001B68013B784A1360774B1B68002B06DC6B
:10034C00774B1B68744A1360714B03221A7064203C
:10035C0001F034FA1EE0032000F052FF6D4B1B68D5
:10036C00012B19D16C4B1B68013B6B4A13606A4B18
:10037C001B68002B06DC6B4B1B68674A1360644BD5
:10038C0001221A70642001F019FA05E000BF04E0A4
:10039C0000BF02E000BF00E000BF634B1B78032BE3
:1003AC0062D801A252F823F0C5030008D303000859
:1003BC00090400083F0400085B4B02221A706420F9
:1003CC0001F010FA57E0012000F076FF574B1B6844
:1003DC00012B4BD1564B1B68013B554A1360544BB8
:1003EC001B68002B06DC4D4B1B68514A13604E4BAF
:1003FC0002221A70642001F0F5F937E0022000F0B7
:10040C005BFF4A4B1B68012B32D1494B1B68013BEC
:10041C00474A1360464B1B68002B06DC404B1B689D
:10042C00434A1360404B03221A70642001F0DAF93E
:10043C001EE0032000F040FF3C4B1B68012B19D140
:10044C003B4B1B68013B3A4A1360394B1B68002B32
:10045C0006DC344B1B68364A1360334B01221A708E
:10046C00642001F0BFF905E000BF04E000BF02E02A
:10047C0000BF00E000BF2F4B1B78022B20D0022BBB
:10048C0031DC002B02D0012B07D02CE0294B0122B0
:10049C001A70012001F0BAF92AE0274B1B68012BD6
:1004AC0023D11D4B1B68224A12681146184601F0D5
:1004BC001BF8204B02221A70322001F0A7F914E02D
:1004CC001D4B1B68012B12D1134B1B68184A126869
:1004DC001146184601F02CF8164B01221A703220E6
:1004EC0001F094F903E000BF02E000BF00E000BFA0
:1004FC000020FFF7C3FE0346002B04D0034B02225F
:10050C001A7000F01BF800BF80BD00BFD0000020A7
:10051C00CC00002080000020C800002040000020FB
:10052C00440000203C000020D8000020880000205F
:10053C00D4000020DD0000209000002080B500AF2A
:10054C00012208210F4801F05CFE012210210D4808
:10055C0001F057FE012220210A4801F052FE01222F
:10056C004021084801F04DFE01228021054801F090
:10057C0048FE01224FF48071024801F042FE00BF98
:10058C0080BD00BF000C014080B483B000AF244B91
:10059C001A68244B1B681A44234B1B689A421ADABC
:1005AC00214B1A681E4B1B68D21A1E4B1B68D31AA0
:1005BC007B607B68DA0F13445B101A46194B1B687F
:1005CC001344184A1360184B1A68164B1B68D31A3D
:1005DC00134A13600FE0124B1A68124B1B681A4433
:1005EC00114B1B689A4206DD0D4B1A680D4B1B68AC
:1005FC0013440D4A13600A4B1A680A4B1B689A4243
:10060C0009DD084B1B683B60054B1B68054A1360F2
:10061C00034A3B68136000BF0C37BD4680BC704773
:10062C0044000020400000203C00002080B500AFBA
:10063C00494B1B78002B02D0012B07D011E0464B05
:10064C0001221A70192001F0F5F80AE0434B1B68DF
:10065C00012B05D1012000F08FFE192001F0EAF8E2
:10066C0000BF3F4B1B78002B02D0012B13D038E07E
:10067C003C4B1B683C4A13600120FFF7FFFD03460F
:10068C00012B2BD1364B01221A70374B1B680133CF
:10069C00354A136022E00120FFF7F0FD0346012BE1
:1006AC000BD1314B1B6801332F4A13602E4B1B6847
:1006BC00622B02DD2C4B01221A600220FFF7DEFDBB
:1006CC000346012B0CD1284B1B68264A1360264B82
:1006DC0000221A60254B03221A7001E000BF00E0D3
:1006EC0000BF234B1B78022B1ED0022B2DDC002BC2
:1006FC0002D0012B07D028E01D4B01221A701920C3
:10070C0001F0ACF826E01B4B1B68012B1FD1164BDC
:10071C001B681946012000F0E7FE154B02221A70E7
:10072C00192001F09BF812E0124B1B68012B10D121
:10073C000D4B1B681946002000F0FAFE192001F041
:10074C008DF80B4B01221A7003E000BF02E000BFD2
:10075C0000E000BF00BF80BDDA0000209800002040
:10076C00DC0000203C0000207C000020D000002099
:10077C00D1000020A000002080B500AF494B1B78B1
:10078C00002B02D0012B07D011E0464B01221A702E
:10079C00192001F077F80AE0434B1B68012B05D1B7
:1007AC00032000F0E9FD192001F06CF800BF3F4B6D
:1007BC001B78002B02D0012B16D038E03C4B1B6869
:1007CC003C4A13600120FFF759FD0346012B07D16A
:1007DC00364B01221A70374B1B680133354A1360B4
:1007EC00324B01221A7022E00120FFF747FD03462D
:1007FC00012B0BD12F4B1B6801332E4A13602D4B51
:10080C001B68622B02DD2B4B01221A600220FFF7C2
:10081C0035FD0346012B09D1264B1B68244A136076
:10082C00244B00221A60244B04221A7000BF234B65
:10083C001B78022B1ED0022B2DDC002B02D0012B9F
:10084C0007D028E01D4B01221A70192001F02EF858
:10085C0026E01B4B1B68012B1FD1164B1B6819463E
:10086C00012000F041FE154B02221A70192001F0F4
:10087C001DF812E0124B1B68012B10D10D4B1B689D
:10088C001946002000F054FE192001F00FF80B4B14
:10089C0001221A7003E000BF02E000BF00E000BFBD
:1008AC0000BF80BDD2000020A8000020DB0000208B
:1008BC00440000207C000020D0000020CE0000204E
:1008CC00B000002080B500AF4A4B1B78002B02D043
:1008DC00012B07D011E0474B01221A70192000F0B0
:1008EC00F9FF0AE0444B1B68012B05D1022000F0F4
:1008FC0043FD192000F0EEFF00BF404B1B78002B8E
:10090C0002D0012B13D039E03D4B1B683D4A1360DC
:10091C000120FFF7B3FC0346012B2CD1374B0122EE
:10092C001A70384B1B680133364A136023E00120E0
:10093C00FFF7A4FC0346012B0BD1324B1B68013390
:10094C00304A13602F4B1B68622B02DD2D4B0122AA
:10095C001A600220FFF792FC0346012B0DD1294BA4
:10096C001B68274A1360FFF70FFE274B01221A70F2
:10097C0000F08EF801E000BF00E000BF234B1B78B5
:10098C00022B1ED0022B2DDC002B02D0012B07D00A
:10099C0028E01E4B01221A70192000F0AFFF26E050
:1009AC001B4B1B68012B1FD1164B1B6819460120D2
:1009BC0000F09AFD154B02221A70192000F09EFFD0
:1009CC0012E0134B1B68012B10D10E4B1B68194600
:1009DC00002000F0ADFD192000F090FF0B4B012220
:1009EC001A7003E000BF02E000BF00E000BF00BFD0
:1009FC0080BD00BFCF000020B8000020CD0000203B
:100A0C00400000207C000020D0000020D9000020F5
:100A1C00C000002080B500AF1C4B1B78042B1ED0EF
:100A2C00042B2ADC022B02D0032B0CD025E0FFF781
:100A3C00FDFD0020FFF722FC0346012B1FD1134BB9
:100A4C0003221A701BE0FFF797FE0020FFF716FC3D
:100A5C000346012B15D10D4B04221A7011E0FFF740
:100A6C0031FF0020FFF70AFC0346002B0BD0074B8D
:100A7C0001221A7000F00CF805E000BF04E000BF82
:100A8C0002E000BF00E000BF00BF80BDD00000202E
:100A9C0080B400AF1A4B01221A701A4B00221A7044
:100AAC00194B00221A70194B00221A70184B002295
:100ABC001A70184B00221A70174B00221A70174B21
:100ACC0000221A70164B00221A70164B00221A7054
:100ADC00154B00221A70154B00221A70144B002271
:100AEC001A70144B00221A60134B1B68134A1360C4
:100AFC00134B1B68134A136000BFBD4680BC704784
:100B0C00D0000020DA000020D1000020DC00002002
:100B1C00D2000020CE000020DB000020CF000020FF
:100B2C00D9000020CD000020CC000020D8000020EF
:100B3C00DD0000207C0000203C000020C8000020CC
:100B4C0040000020D400002080B582B000AF786057
:100B5C007B68092B00F2808101A252F823F000BFC0
:100B6C00950B0008DD0B0008250C00086D0C000827
:100B7C00B50C0008FD0C0008450D00088D0D000893
:100B8C00D50D00081D0E000800220121B54801F00A
:100B9C0038FB00220221B34801F033FB0022042170
:100BAC00B04801F02EFB00220821AE4801F029FBD1
:100BBC0000221021AB4801F024FB00222021A9487F
:100BCC0001F01FFB01224021A64801F01AFB44E171
:100BDC0001220121A34801F014FB00220221A148AB
:100BEC0001F00FFB002204219E4801F00AFB0122B8
:100BFC0008219C4801F005FB01221021994801F0C5
:100C0C0000FB01222021974801F0FBFA0122402130
:100C1C00944801F0F6FA20E100220121914801F0FC
:100C2C00F0FA002202218F4801F0EBFA0122042194
:100C3C008C4801F0E6FA002208218A4801F0E1FA1A
:100C4C0000221021874801F0DCFA0122202185487E
:100C5C0001F0D7FA00224021824801F0D2FAFCE0E0
:100C6C00002201217F4801F0CCFA002202217D48AC
:100C7C0001F0C7FA002204217A4801F0C2FA0022DE
:100C8C000821784801F0BDFA01221021754801F0C5
:100C9C00B8FA01222021734801F0B3FA0022402156
:100CAC00704801F0AEFAD8E0012201216D4801F044
:100CBC00A8FA002202216B4801F0A3FA00220421B9
:100CCC00684801F09EFA01220821664801F099FA61
:100CDC0001221021634801F094FA0022202161487E
:100CEC0001F08FFA002240215E4801F08AFAB4E04C
:100CFC00002201215B4801F084FA012202215948AB
:100D0C0001F07FFA00220421564801F07AFA002201
:100D1C000821544801F075FA01221021514801F0C4
:100D2C0070FA002220214F4801F06BFA002240217A
:100D3C004C4801F066FA90E000220121494801F08C
:100D4C0060FA01220221474801F05BFA00220421DB
:100D5C00444801F056FA00220821424801F051FAA9
:100D6C00002210213F4801F04CFA002220213D487E
:100D7C0001F047FA002240213A4801F042FA6CE0B7
:100D8C0000220121374801F03CFA002202213548AB
:100D9C0001F037FA00220421324801F032FA012224
:100DAC000821304801F02DFA012210212D4801F0C4
:100DBC0028FA012220212B4801F023FA012240219C
:100DCC00284801F01EFA48E000220121254801F0D4
:100DDC0018FA00220221234801F013FA0022042100
:100DEC00204801F00EFA002208211E4801F009FAF1
:100DFC00002210211B4801F004FA0022202119487E
:100E0C0001F0FFF900224021164801F0FAF924E024
:100E1C0000220121134801F0F4F9002202211148AB
:100E2C0001F0EFF9002204210E4801F0EAF900224A
:100E3C0008210C4801F0E5F901221021094801F0C4
:100E4C00E0F900222021074801F0DBF900224021C3
:100E5C00044801F0D6F900E000BF00BF0837BD46DA
:100E6C0080BD00BF0008014080B582B000AF786043
:100E7C007B68092B00F2BC8101A252F823F000BF61
:100E8C00B50E0008090F00085D0F0008B10F00082F
:100E9C000510000859100008AD10000801110008D9
:100EAC0055110008A911000800228021D34801F037
:100EBC00A8F900224FF48071D04801F0A2F9002269
:100ECC004FF40071CD4801F09CF900224FF4806181
:100EDC00CA4801F096F900224FF40061C74801F0AE
:100EEC0090F900224FF48051C44801F08AF9012294
:100EFC004FF40051C14801F084F97AE101228021BC
:100F0C00BE4801F07EF900224FF48071BB4801F01D
:100F1C0078F900224FF40071B84801F072F90122FF
:100F2C004FF48061B54801F06CF901224FF4006177
:100F3C00B24801F066F901224FF48051AF4801F03C
:100F4C0060F901224FF40051AC4801F05AF950E11C
:100F5C0000228021A94801F054F900224FF480713D
:100F6C00A64801F04EF901224FF40071A34801F09C
:100F7C0048F900224FF48061A04801F042F90022A8
:100F8C004FF400619D4801F03CF901224FF480516F
:100F9C009A4801F036F900224FF40051974801F0BD
:100FAC0030F926E100228021944801F02AF9002230
:100FBC004FF48071914801F024F900224FF4007134
:100FCC008E4801F01EF900224FF480618B4801F02D
:100FDC0018F901224FF40061884801F012F901223E
:100FEC004FF48051854801F00CF900224FF4005168
:100FFC00824801F006F9FCE0012280217F4801F0D3
:10100C0000F900224FF480717C4801F0FAF80022BC
:10101C004FF40071794801F0F4F801224FF480612B
:10102C00764801F0EEF801224FF40061734801F0AC
:10103C00E8F800224FF48051704801F0E2F80022E9
:10104C004FF400516D4801F0DCF8D2E00022802111
:10105C006A4801F0D6F801224FF48071674801F01C
:10106C00D0F800224FF40071644801F0CAF8002255
:10107C004FF48061614801F0C4F801224FF4006123
:10108C005E4801F0BEF800224FF480515B4801F03D
:10109C00B8F800224FF40051584801F0B2F8A8E01B
:1010AC0000228021554801F0ACF801224FF48071E8
:1010BC00524801F0A6F800224FF400714F4801F09D
:1010CC00A0F800224FF480614C4801F09AF80022FD
:1010DC004FF40061494801F094F800224FF480511C
:1010EC00464801F08EF800224FF40051434801F0BD
:1010FC0088F87EE000228021404801F082F800222E
:10110C004FF480713D4801F07CF800224FF40071DF
:10111C003A4801F076F801224FF48061374801F02B
:10112C0070F801224FF40061344801F06AF8012292
:10113C004FF48051314801F064F801224FF4005112
:10114C002E4801F05EF854E0002280212B4801F07B
:10115C0058F800224FF48071284801F052F8002210
:10116C004FF40071254801F04CF800224FF48061D7
:10117C00224801F046F800224FF400611F4801F0AC
:10118C0040F800224FF480511C4801F03AF800223C
:10119C004FF40051194801F034F82AE00022802164
:1011AC00164801F02EF800224FF48071134801F01C
:1011BC0028F800224FF40071104801F022F80022A8
:1011CC004FF480610D4801F01CF801224FF40061CE
:1011DC000A4801F016F800224FF48051074801F03C
:1011EC0010F800224FF40051044801F00AF800E016
:1011FC0000BF00BF0837BD4680BD00BF00080140DE
:10120C0080B582B000AF0346FB71FB79032B4BD842
:10121C0001A252F823F000BF351200085512000845
:10122C00951200087512000801222021214800F0B7
:10123C00E8FF012210211F4800F0E3FF01220821E2
:10124C001C4800F0DEFF30E001222021194800F09C
:10125C00D8FF01221021174800F0D3FF00220821EB
:10126C00144800F0CEFF20E001222021114800F0AC
:10127C00C8FF002210210F4800F0C3FF01220821F3
:10128C000C4800F0BEFF10E000222021094800F0BD
:10129C00B8FF01221021074800F0B3FF01220821FA
:1012AC00044800F0AEFF00E000BF00BF0837BD46A9
:1012BC0080BD00BF000C014080B582B000AF03467A
:1012CC00FB71FB79032B4FD801A252F823F000BF1E
:1012DC00ED1200080F130008531300083113000817
:1012EC0001224FF48071234800F08BFF01228021F2
:1012FC00204800F086FF012240211E4800F081FFAB
:10130C0033E001224FF480711A4800F07AFF012279
:10131C008021184800F075FF00224021154800F08C
:10132C0070FF22E001224FF48071124800F069FF37
:10133C00002280210F4800F064FF012240210D485B
:10134C0000F05FFF11E000224FF48071094800F0BB
:10135C0058FF01228021074800F053FF0122402151
:10136C00044800F04EFF00E000BF00BF0837BD4648
:10137C0080BD00BF000C014080B582B000AF0346B9
:10138C00FB71FB79032B23D0032B5DDC012B3DD0B0
:10139C00022B59D1012208212E4800F032FF0122E4
:1013AC0010212C4800F02DFF01224021294800F08B
:1013BC0028FF01228021274800F023FF2021254807
:1013CC0000F037FF4FF48071224800F032FF3CE010
:1013DC00012208211F4800F014FF012220211D4882
:1013EC0000F00FFF012240211A4800F00AFF0122F1
:1013FC004FF48071174800F004FF1021154800F0DD
:10140C0018FF8021134800F014FF1EE00122102168
:10141C00104800F0F6FE012220210E4800F0F1FEEB
:10142C00012280210B4800F0ECFE01224FF4807168
:10143C00084800F0E6FE0821064800F0FAFE4021BC
:10144C00044800F0F6FE00E000BF00BF0837BD46C0
:10145C0080BD00BF000C014080B500AF00224FF4EE
:10146C000071054800F0CDFE01224FF48061024866
:10147C0000F0C7FE00BF80BD000C014080B500AF7E
:10148C0001224FF40071054800F0BBFE00224FF41E
:10149C008061024800F0B5FE00BF80BD000C014029
:1014AC0080B500AF00224FF40061054800F0A9FEA2
:1014BC0001224FF48051024800F0A3FE00BF80BD12
:1014CC00000C014080B500AF01224FF400610548CB
:1014DC0000F097FE00224FF48051024800F091FE7C
:1014EC0000BF80BD000C014080B582B000AF7860B9
:1014FC003960FFF7B1FF7B680C4A82FB0312921034
:10150C00DB17D31A1846FFF71FFBFFF7C9FF3B6821
:10151C00064A82FB03129210DB17D31A1846FFF708
:10152C00A3FC00BF0837BD4680BD00BF676666667A
:10153C0080B582B000AF78603960FFF79FFF7A68A2
:10154C00114B83FB02139910D317C91A0B469B003E
:10155C000B445B00D11A0846FFF7F6FAFFF7B2FF0F
:10156C003A68094B83FB02139910D317C91A0B461F
:10157C009B000B445B00D11A0846FFF775FC00BFBB
:10158C000837BD4680BD00BF6766666680B500AF94
:10159C0000F036FB00F016F800F09CF800F04EF866
:1015AC00074801F08BFAFFF773FA0020FFF728FECB
:1015BC000020FFF781FEFEF77BFEFFF72BFAFAE720
:1015CC00E000002080B590B000AF07F1180328228E
:1015DC000021184601F022FE3B1D00221A605A60C1
:1015EC009A60DA601A610223BB610123BB6210238B
:1015FC00FB6200237B6307F11803184600F032FEF0
:10160C000346002B01D000F0D3F80F237B6000239E
:10161C00BB600023FB6000233B6100237B613B1D0F
:10162C000021184601F09EF80346002B01D000F073
:10163C00BFF800BF4037BD4680BD000080B586B006
:10164C0000AF07F1080300221A605A609A60DA6052
:10165C003B4600221A605A601D4B4FF080421A60C4
:10166C001B4B41F63F725A60194B00229A60184B83
:10167C000922DA60164B00221A61154B00229A617E
:10168C00134801F0CBF90346002B01D000F090F881
:10169C004FF48053BB6007F1080319460C4801F066
:1016AC0049FB0346002B01D000F082F800233B607D
:1016BC0000237B603B461946054801F021FD03469B
:1016CC00002B01D000F074F800BF1837BD4680BD68
:1016DC00E000002080B586B000AF07F108030022BF
:1016EC001A605A609A60DA60284B9B69274A43F06B
:1016FC0004039361254B9B6903F004037B607B68B7
:10170C00224B9B69214A43F0080393611F4B9B6951
:10171C0003F008033B603B68002243F6FF711C4852
:10172C0000F06FFD002241F6F8711A4800F069FDD7
:10173C0043F6FF73BB600123FB6000233B61022374
:10174C007B6107F108031946114800F0C9FB072318
:10175C00BB600023FB6001233B6107F108031946C2
:10176C000C4800F0BDFB41F6F873BB600123FB6035
:10177C0000233B6102237B6107F1080319460548EE
:10178C0000F0AEFB00BF1837BD4680BD0010024014
:10179C0000080140000C014080B582B000AF7860B9
:1017AC00FEF7DEFC00F0BEF800BF0837BD4680BD7A
:1017BC0080B400AF72B600BFFEE7000080B483B007
:1017CC0000AF7860054A7B681360054B00221A60F5
:1017DC0000BF0C37BD4680BC704700BF84000020A2
:1017EC008000002080B483B000AF7860054A7B682D
:1017FC001360054B00221A6000BF0C37BD4680BC3D
:10180C00704700BF8C0000208800002080B483B09B
:10181C0000AF7860054A7B681360054B00221A60A4
:10182C0000BF0C37BD4680BC704700BF9400002041
:10183C009000002080B483B000AF7860054A7B68CC
:10184C001360054B00221A6000BF0C37BD4680BCEC
:10185C00704700BF9C0000209800002080B483B02B
:10186C0000AF7860054A7B681360054B00221A6054
:10187C0000BF0C37BD4680BC704700BFA4000020E1
:10188C00A000002080B483B000AF7860054A7B686C
:10189C001360054B00221A6000BF0C37BD4680BC9C
:1018AC00704700BFAC000020A800002080B483B0BB
:1018BC0000AF7860054A7B681360054B00221A6004
:1018CC0000BF0C37BD4680BC704700BFB400002081
:1018DC00B000002080B483B000AF7860054A7B680C
:1018EC001360054B00221A6000BF0C37BD4680BC4C
:1018FC00704700BFBC000020B800002080B483B04B
:10190C0000AF7860054A7B681360054B00221A60B3
:10191C0000BF0C37BD4680BC704700BFC400002020
:10192C00C000002080B400AF494B1B68002B0BDDBE
:10193C00474B1B68013B464A1360454B1B68002B09
:10194C0002DC444B01221A60434B1B68002B0BDD5D
:10195C00414B1B68013B404A13603F4B1B68002BFB
:10196C0002DC3E4B01221A603D4B1B68002B0BDD49
:10197C003B4B1B68013B3A4A1360394B1B68002BED
:10198C0002DC384B01221A60374B1B68002B0BDD35
:10199C00354B1B68013B344A1360334B1B68002BDF
:1019AC0002DC324B01221A60314B1B68002B0BDD21
:1019BC002F4B1B68013B2E4A13602D4B1B68002BD1
:1019CC0002DC2C4B01221A602B4B1B68002B0BDD0D
:1019DC00294B1B68013B284A1360274B1B68002BC3
:1019EC0002DC264B01221A60254B1B68002B0BDDF9
:1019FC00234B1B68013B224A1360214B1B68002BB5
:101A0C0002DC204B01221A601F4B1B68002B0BDDE4
:101A1C001D4B1B68013B1C4A13601B4B1B68002BA6
:101A2C0002DC1A4B01221A60194B1B68002B0BDDD0
:101A3C00174B1B68013B164A1360154B1B68002B98
:101A4C0002DC144B01221A6000BFBD4680BC7047FB
:101A5C0084000020800000208C00002088000020E2
:101A6C0094000020900000209C0000209800002092
:101A7C00A4000020A0000020AC000020A800002042
:101A8C00B4000020B0000020BC000020B8000020F2
:101A9C00C4000020C000002080B485B000AF154BFE
:101AAC009B69144A43F001039361124B9B6903F049
:101ABC000103BB60BB680F4BDB690E4A43F08053DC
:101ACC00D3610C4BDB6903F080537B607B680A4B62
:101ADC005B68FB60FB6823F0E063FB60FB6843F032
:101AEC008063FB60044AFB68536000BF1437BD463B
:101AFC0080BC7047001002400000014080B584B0EB
:101B0C0000AF78607B681B68B3F1804F13D10C4B2E
:101B1C00DB690B4A43F00103D361094BDB6903F02A
:101B2C000103FB60FB68002200211C2000F0A1F9DE
:101B3C001C2000F0BAF900BF1037BD4680BD00BFB5
:101B4C000010024080B400AFFEE780B400AFFEE7A7
:101B5C0080B400AFFEE780B400AFFEE780B400AF06
:101B6C00FEE780B400AF00BFBD4680BC704780B4B8
:101B7C0000AF00BFBD4680BC704780B400AF00BF53
:101B8C00BD4680BC704780B500AF00F07FF800BF49
:101B9C0080BD000080B500AF024800F0DBFF00BF45
:101BAC0080BD00BFE000002080B400AF00BFBD4688
:101BBC0080BC7047FFF7F8FF0B480C490C4A002318
:101BCC0002E0D458C4500433C4188C42F9D3094AE7
:101BDC00094C002301E013600432A242FBD301F054
:101BEC00F9FAFFF7D3FC70470000002054000020E6
:101BFC007C320008540000202C010020FEE700007D
:101C0C0080B500AF084B1B68074A43F01003136004
:101C1C00032000F023F90F2000F008F8FFF73CFF39
:101C2C000023184680BD00BF0020024080B582B062
:101C3C0000AF7860124B1A68124B1B7819464FF4A0
:101C4C007A73B3FBF1F3B2FBF3F3184600F03BF9F4
:101C5C000346002B01D001230EE07B680F2B0AD822
:101C6C00002279684FF0FF3000F003F9064A7B68D8
:101C7C001360002300E0012318460837BD4680BDE1
:101C8C0048000020500000204C00002080B400AF21
:101C9C00054B1B781A46054B1B681344034A13600B
:101CAC0000BFBD4680BC70475000002028010020BA
:101CBC0080B400AF024B1B681846BD4680BC704711
:101CCC002801002080B485B000AF78607B6803F0F9
:101CDC000703FB600C4BDB68BB60BA684FF6FF0375
:101CEC001340BB60FB681A02BB68134343F0BF632D
:101CFC0043F40033BB60044ABB68D36000BF1437A5
:101D0C00BD4680BC704700BF00ED00E080B400AF62
:101D1C00044BDB681B0A03F007031846BD4680BC66
:101D2C00704700BF00ED00E080B483B000AF034605
:101D3C00FB7197F90730002B0BDBFB7903F01F02CB
:101D4C00064997F907305B09012000FA02F241F8C5
:101D5C00232000BF0C37BD4680BC704700E100E07B
:101D6C0080B483B000AF03463960FB7197F907303C
:101D7C00002B0ADB3B68DAB20C4997F907301201E9
:101D8C00D2B20B4483F800230AE03B68DAB208496C
:101D9C00FB7903F00F03043B1201D2B20B441A7609
:101DAC0000BF0C37BD4680BC704700BF00E100E0AF
:101DBC0000ED00E080B489B000AFF860B9607A60E3
:101DCC00FB6803F00703FB61FB69C3F10703042BFA
:101DDC0028BF0423BB61FB690433062B02D9FB69C2
:101DEC00033B00E000237B614FF0FF32BB6902FA3A
:101DFC0003F3DA43BB681A407B699A404FF0FF311A
:101E0C007B6901FA03F3D9437B680B4013431846F3
:101E1C002437BD4680BC704780B582B000AF786077
:101E2C007B68013BB3F1807F01D301230FE00A4AA9
:101E3C007B68013B53600F214FF0FF30FFF790FFA1
:101E4C00054B00229A60044B07221A6000231846A7
:101E5C000837BD4680BD00BF10E000E080B582B001
:101E6C0000AF78607868FFF72DFF00BF0837BD46DC
:101E7C0080BD80B586B000AF0346B9607A60FB7355
:101E8C0000237B61FFF742FF78617A68B968786953
:101E9C00FFF790FF024697F90F3011461846FFF7EF
:101EAC005FFF00BF1837BD4680BD80B582B000AF64
:101EBC000346FB7197F907301846FFF735FF00BF53
:101ECC000837BD4680BD80B582B000AF78607868B9
:101EDC00FFF7A2FF034618460837BD4680BD000039
:101EEC0080B48BB000AF7860396000237B62002334
:101EFC003B6248E101227B6A02FA03F3FB613B6817
:101F0C001B68FA691340BB61BA69FB699A4240F0DD
:101F1C0037813B685B68A34A93425ED0A14A9342E7
:101F2C0075D8A14A934258D09F4A93426FD89F4A82
:101F3C00934252D09D4A934269D89D4A93424CD0C9
:101F4C009B4A934263D89B4A934246D0994A934208
:101F5C005DD8122B2AD8122B59D801A252F823F093
:101F6C00E71F0008C11F0008D31F00081520000838
:101F7C001B2000081B2000081B2000081B20000849
:101F8C001B2000081B2000081B2000081B20000839
:101F9C001B2000081B2000081B2000081B20000829
:101FAC001B200008C91F0008DD1F0008824A93424D
:101FBC0013D02CE03B68DB683B6229E03B68DB68B4
:101FCC0004333B6224E03B68DB6808333B621FE070
:101FDC003B68DB680C333B621AE03B689B68002B68
:101FEC0002D104233B6213E03B689B68012B05D1B3
:101FFC0008233B627B68FA691A6109E008233B629B
:10200C007B68FA695A6103E000233B6200E000BF81
:10201C00BB69FF2B01D87B6801E07B6804337B61D3
:10202C00BB69FF2B02D87B6A9B0002E07B6A083BF2
:10203C009B003B617B691A680F213B6901FA03F332
:10204C00DB431A40396A3B6901FA03F31A437B6993
:10205C001A603B685B6803F08053002B00F09080A3
:10206C00564B9B69554A43F001039361534B9B6953
:10207C0003F00103BB60BB68514A7B6A9B080233C7
:10208C0052F82330FB607B6A03F003039B000F22A2
:10209C0002FA03F3DB43FA681340FB607B68494A9E
:1020AC0093420DD07B68484A934207D07B68474ADD
:1020BC00934201D1022304E0032302E0012300E058
:1020CC0000237A6A02F0030292009340FA681343E9
:1020DC00FB603B497B6A9B080233FA6841F823207A
:1020EC003B685B6803F48013002B06D0384B9A686E
:1020FC003749BB6913438B6006E0354B9A68BB6963
:10210C00DB43334913408B603B685B6803F400137B
:10211C00002B06D02E4BDA682D49BB691343CB60DC
:10212C0006E02B4BDA68BB69DB4329491340CB60D3
:10213C003B685B6803F40033002B06D0244B5A68D1
:10214C002349BB6913434B6006E0214B5A68BB69BA
:10215C00DB431F4913404B603B685B6803F48033DF
:10216C00002B06D01A4B1A681949BB6913430B6034
:10217C0006E0174B1A68BB69DB43154913400B602B
:10218C007B6A01337B623B681A687B6A22FA03F331
:10219C00002B7FF4AFAE00BF00BF2C37BD4680BC18
:1021AC00704700BF000032100000311000002210F8
:1021BC00000021100000121000001110001002404D
:1021CC000000014000080140000C014000100140DB
:1021DC000004014080B485B000AF78600B467B8072
:1021EC007B689A687B881340002B02D00123FB7319
:1021FC0001E00023FB73FB7B18461437BD4680BC03
:10220C00704780B483B000AF78600B467B80134678
:10221C007B707B78002B03D07A887B681A6103E093
:10222C007B881A047B681A6100BF0C37BD4680BCE2
:10223C00704780B485B000AF78600B467B807B68BC
:10224C00DB68FB607A88FB6813401A04FB68D9438F
:10225C007B880B401A437B681A6100BF1437BD465C
:10226C0080BC704780B586B000AF78607B68002B6F
:10227C0001D101236CE27B681B6803F00103002B86
:10228C0000F08780924B5B6803F00C03042B0CD09E
:10229C008F4B5B6803F00C03082B12D18C4B5B68E3
:1022AC0003F48033B3F5803F0BD1894B1B6803F4E7
:1022BC000033002B6CD07B685B68002B68D101234A
:1022CC0046E27B685B68B3F5803F06D1804B1B68A8
:1022DC007F4A43F4803313602EE07B685B68002BED
:1022EC000CD17B4B1B687A4A23F480331360784BF8
:1022FC001B68774A23F4802313601DE07B685B68BE
:10230C00B3F5A02F0CD1724B1B68714A43F4802398
:10231C0013606F4B1B686E4A43F4803313600BE001
:10232C006B4B1B686A4A23F480331360684B1B6841
:10233C00674A23F4802313607B685B68002B13D0FF
:10234C00FFF7B6FC386108E0FFF7B2FC02463B69C8
:10235C00D31A642B01D90323FAE15D4B1B6803F4F8
:10236C000033002BF0D014E0FFF7A2FC386108E03A
:10237C00FFF79EFC02463B69D31A642B01D9032359
:10238C00E6E1534B1B6803F40033002BF0D100E063
:10239C0000BF7B681B6803F00203002B63D04C4B1F
:1023AC005B6803F00C03002B0BD0494B5B6803F00C
:1023BC000C03082B1CD1464B5B6803F48033002BB9
:1023CC0016D1434B1B6803F00203002B05D07B682E
:1023DC001B69012B01D00123BAE13D4B1B6823F093
:1023EC00F8027B685B69DB00394913430B603AE008
:1023FC007B681B69002B20D0364B01221A60FFF73B
:10240C0057FC386108E0FFF753FC02463B69D31ACE
:10241C00022B01D903239BE12D4B1B6803F0020314
:10242C00002BF0D02A4B1B6823F0F8027B685B6909
:10243C00DB00274913430B6015E0264B00221A6082
:10244C00FFF736FC386108E0FFF732FC02463B69C7
:10245C00D31A022B01D903237AE11D4B1B6803F01D
:10246C000203002BF0D17B681B6803F00803002BE0
:10247C003AD07B689B69002B19D0174B01221A604C
:10248C00FFF716FC386108E0FFF712FC02463B69C7
:10249C00D31A022B01D903235AE10D4B5B6A03F0CB
:1024AC000203002BF0D0012000F09AFA1CE00A4B3A
:1024BC0000221A60FFF7FCFB38610FE0FFF7F8FB16
:1024CC0002463B69D31A022B08D9032340E100BF13
:1024DC000010024000004242800442429E4B5B6A64
:1024EC0003F00203002BE9D17B681B6803F00403A3
:1024FC00002B00F0A6800023FB75974BDB6903F0E3
:10250C008053002B0DD1944BDB69934A43F08053DD
:10251C00D361914BDB6903F08053BB60BB68012333
:10252C00FB758E4B1B6803F48073002B18D18B4BFF
:10253C001B688A4A43F480731360FFF7B9FB386158
:10254C0008E0FFF7B5FB02463B69D31A642B01D9AF
:10255C000323FDE0814B1B6803F48073002BF0D048
:10256C007B68DB68012B06D17B4B1B6A7A4A43F0F4
:10257C00010313622DE07B68DB68002B0CD1764BDA
:10258C001B6A754A23F001031362734B1B6A724A70
:10259C0023F0040313621CE07B68DB68052B0CD171
:1025AC006D4B1B6A6C4A43F0040313626A4B1B6A43
:1025BC00694A43F0010313620BE0674B1B6A664ADE
:1025CC0023F001031362644B1B6A634A23F0040378
:1025DC0013627B68DB68002B15D0FFF769FB386151
:1025EC000AE0FFF765FB02463B69D31A41F28832D9
:1025FC00934201D90323ABE0574B1B6A03F0020350
:10260C00002BEED014E0FFF753FB38610AE0FFF724
:10261C004FFB02463B69D31A41F28832934201D9EF
:10262C00032395E04C4B1B6A03F00203002BEED105
:10263C00FB7D012B05D1484BDB69474A23F08053C6
:10264C00D3617B68DB69002B00F08180424B5B68B7
:10265C0003F00C03082B61D07B68DB69022B46D19D
:10266C003F4B00221A60FFF723FB386108E0FFF7AD
:10267C001FFB02463B69D31A022B01D9032367E0E7
:10268C00354B1B6803F00073002BF0D17B681B6A81
:10269C00B3F5803F08D1304B5B6823F400327B6884
:1026AC009B682D4913434B602B4B5B6823F47412CE
:1026BC007B68196A7B685B6A0B43274913434B6041
:1026CC00274B01221A60FFF7F3FA386108E0FFF795
:1026DC00EFFA02463B69D31A022B01D9032337E0E8
:1026EC001D4B1B6803F00073002BF0D02FE01C4B2C
:1026FC0000221A60FFF7DCFA386108E0FFF7D8FA1D
:10270C0002463B69D31A022B01D9032320E0124B5A
:10271C001B6803F00073002BF0D118E07B68DB69B9
:10272C00012B01D1012313E00B4B5B68FB60FB68B1
:10273C0003F480327B681B6A9A4206D1FB6803F46F
:10274C0070127B685B6A9A4201D0012300E000237F
:10275C0018461837BD4680BD00100240007000407E
:10276C006000424280B584B000AF786039607B680D
:10277C00002B01D10123D0E06A4B1B6803F0070347
:10278C003A689A4210D9674B1B6823F007026549D7
:10279C003B6813430B60634B1B6803F007033A68F9
:1027AC009A4201D00123B8E07B681B6803F0020356
:1027BC00002B20D07B681B6803F00403002B05D092
:1027CC00594B5B68584A43F4E06353607B681B6861
:1027DC0003F00803002B05D0534B5B68524A43F4BB
:1027EC0060535360504B5B6823F0F0027B689B682E
:1027FC004D4913434B607B681B6803F00103002BAE
:10280C0040D07B685B68012B07D1474B1B6803F4F6
:10281C000033002B15D101237FE07B685B68022B12
:10282C0007D1414B1B6803F00073002B09D1012326
:10283C0073E03D4B1B6803F00203002B01D1012315
:10284C006BE0394B5B6823F003027B685B683649AD
:10285C0013434B60FFF72CFAF8600AE0FFF728FAF5
:10286C000246FB68D31A41F28832934201D9032302
:10287C0053E02D4B5B6803F00C027B685B689B009C
:10288C009A42EBD1274B1B6803F007033A689A4234
:10289C0010D2244B1B6823F0070222493B681343D8
:1028AC000B60204B1B6803F007033A689A4201D077
:1028BC00012332E07B681B6803F00403002B08D073
:1028CC00194B5B6823F4E0627B68DB6816491343A1
:1028DC004B607B681B6803F00803002B09D0124B7C
:1028EC005B6823F460527B681B69DB000E49134361
:1028FC004B6000F021F802460B4B5B681B0903F0A0
:10290C000F030A49CB5C22FA03F3094A1360094B03
:10291C001B681846FFF78AF9002318461037BD4686
:10292C0080BD00BF00200240001002405032000861
:10293C00480000204C00002080B487B000AF00237A
:10294C00FB600023BB6000237B6100237B600023C2
:10295C003B611E4B5B68FB60FB6803F00C03042BB4
:10296C0002D0082B03D027E0194B3B6127E0FB6812
:10297C009B0C03F00F03174AD35C7B60FB6803F4DA
:10298C008033002B10D0114B5B685B0C03F0010300
:10299C00114AD35CBB607B680D4A02FB03F2BB6837
:1029AC00B2FBF3F37B6104E07B680C4A02FB03F39C
:1029BC007B617B693B6102E0054B3B6100BF3B697E
:1029CC0018461C37BD4680BC704700BF0010024043
:1029DC0000127A00603200087032000800093D00D5
:1029EC0080B485B000AF78600A4B1B680A4AA2FB22
:1029FC0003235B0A7A6802FB03F3FB6000BFFB68EE
:102A0C005A1EFA60002BF9D100BF00BF1437BD4627
:102A1C0080BC704748000020D34D621080B582B056
:102A2C0000AF78607B68002B01D1012341E07B680B
:102A3C0093F83D30DBB2002B06D17B68002283F883
:102A4C003C207868FFF75AF87B68022283F83D2017
:102A5C007B681A687B6804331946104600F056FAF6
:102A6C007B68012283F846207B68012283F83E2094
:102A7C007B68012283F83F207B68012283F8402089
:102A8C007B68012283F841207B68012283F8422075
:102A9C007B68012283F843207B68012283F8442061
:102AAC007B68012283F845207B68012283F83D2056
:102ABC00002318460837BD4680BD000080B485B0A1
:102ACC0000AF78607B6893F83D30DBB2012B01D00E
:102ADC00012335E07B68022283F83D207B681B686C
:102AEC00DA687B681B6842F00102DA607B681B685D
:102AFC00164A934209D07B681B68B3F1804F04D00F
:102B0C007B681B68124A934211D17B681B689B68D7
:102B1C0003F00703FB60FB68062B10D07B681B6877
:102B2C001A687B681B6842F001021A6007E07B6838
:102B3C001B681A687B681B6842F001021A6000234C
:102B4C0018461437BD4680BC704700BF002C0140AE
:102B5C000004004080B584B000AF78607B681B68CF
:102B6C00DB68FB607B681B681B69BB60BB6803F0A0
:102B7C000203002B20D0FB6803F00203002B1BD0B8
:102B8C007B681B686FF002021A617B6801221A775E
:102B9C007B681B689B6903F00303002B03D07868E8
:102BAC0000F098F905E0786800F08BF9786800F08F
:102BBC009AF97B6800221A77BB6803F00403002B98
:102BCC0020D0FB6803F00403002B1BD07B681B6830
:102BDC006FF004021A617B6802221A777B681B680B
:102BEC009B6903F44073002B03D0786800F072F9F2
:102BFC0005E0786800F065F9786800F074F97B6896
:102C0C0000221A77BB6803F00803002B20D0FB6866
:102C1C0003F00803002B1BD07B681B686FF00802C5
:102C2C001A617B6804221A777B681B68DB6903F0E6
:102C3C000303002B03D0786800F04CF905E07868AA
:102C4C0000F03FF9786800F04EF97B6800221A77A3
:102C5C00BB6803F01003002B20D0FB6803F01003BB
:102C6C00002B1BD07B681B686FF010021A617B680D
:102C7C0008221A777B681B68DB6903F44073002B0E
:102C8C0003D0786800F026F905E0786800F019F9AF
:102C9C00786800F028F97B6800221A77BB6803F08B
:102CAC000103002B0CD0FB6803F00103002B07D0B1
:102CBC007B681B686FF001021A617868FEF76CFD87
:102CCC00BB6803F08003002B0CD0FB6803F080037F
:102CDC00002B07D07B681B686FF080021A61786844
:102CEC0000F06FFABB6803F04003002B0CD0FB68BC
:102CFC0003F04003002B07D07B681B686FF0400289
:102D0C001A61786800F0F8F8BB6803F02003002B18
:102D1C000CD0FB6803F02003002B07D07B681B68EA
:102D2C006FF020021A61786800F042FA00BF103789
:102D3C00BD4680BD80B584B000AF7860396000239B
:102D4C00FB737B6893F83C30012B01D10223B4E078
:102D5C007B68012283F83C207B68022283F83D20AB
:102D6C007B681B689B68BB60BB6823F07703BB6008
:102D7C00BB6823F47F43BB607B681B68BA689A60AE
:102D8C003B681B68B3F5005F3ED0B3F5005F00F203
:102D9C008780B3F5805F00F08680B3F5805F7FD8C5
:102DAC00702B1AD0702B7BD8602B50D0602B77D81F
:102DBC00502B3CD0502B73D8402B58D0402B6FD875
:102DCC00302B64D0302B6BD8202B60D0202B67D8C5
:102DDC00002B5CD0102B5AD062E07B6818683B68E3
:102DEC0099683B685A683B68DB6800F06AF97B6855
:102DFC001B689B68BB60BB6843F07703BB607B6858
:102E0C001B68BA689A604FE07B6818683B689968E1
:102E1C003B685A683B68DB6800F053F97B681B68B9
:102E2C009A687B681B6842F480429A603CE07B683D
:102E3C0018683B6859683B68DB681A4600F0CAF8AA
:102E4C007B681B685021184600F021F92CE07B6848
:102E5C0018683B6859683B68DB681A4600F0E8F86C
:102E6C007B681B686021184600F011F91CE07B6838
:102E7C0018683B6859683B68DB681A4600F0AAF88A
:102E8C007B681B684021184600F001F90CE07B6858
:102E9C001A683B681B681946104600F0F8F803E006
:102EAC000123FB7300E000BF7B68012283F83D2007
:102EBC007B68002283F83C20FB7B18461037BD460C
:102ECC0080BD80B483B000AF786000BF0C37BD46C6
:102EDC0080BC704780B483B000AF786000BF0C3703
:102EEC00BD4680BC704780B483B000AF786000BF33
:102EFC000C37BD4680BC704780B483B000AF78609F
:102F0C0000BF0C37BD4680BC7047000080B485B054
:102F1C0000AF786039607B681B68FB607B682B4A6C
:102F2C00934207D07B68B3F1804F03D07B68284A6B
:102F3C00934208D1FB6823F07003FB603B685B682D
:102F4C00FA681343FB607B68204A934207D07B6886
:102F5C00B3F1804F03D07B681D4A934208D1FB68C4
:102F6C0023F44073FB603B68DB68FA681343FB6037
:102F7C00FB6823F080023B685B691343FB607B6852
:102F8C00FA681A603B689A687B68DA623B681A6870
:102F9C007B689A627B680D4A934203D13B681A693D
:102FAC007B681A637B6801225A617B681B6903F09A
:102FBC000103002B05D07B681B6923F001027B68A1
:102FCC001A6100BF1437BD4680BC7047002C01400D
:102FDC000004004080B487B000AFF860B9607A603C
:102FEC00FB681B6A7B61FB681B6A23F00102FB68B0
:102FFC001A62FB689B693B613B6923F0F0033B6100
:10300C007B681B013A6913433B617B6923F00A031C
:10301C007B617A69BB6813437B61FB683A699A618F
:10302C00FB687A691A6200BF1C37BD4680BC7047CA
:10303C0080B487B000AFF860B9607A60FB681B6A37
:10304C007B61FB681B6A23F01002FB681A62FB6849
:10305C009B693B613B6923F470433B617B681B03B9
:10306C003A6913433B617B6923F0A0037B61BB6826
:10307C001B017A6913437B61FB683A699A61FB68AF
:10308C007A691A6200BF1C37BD4680BC704780B499
:10309C0085B000AF786039607B689B68FB60FB682B
:1030AC0023F07003FB603A68FB68134343F007039B
:1030BC00FB607B68FA689A6000BF1437BD4680BC21
:1030CC00704780B487B000AFF860B9607A603B603D
:1030DC00FB689B687B617B6923F47F437B613B6866
:1030EC001A027B681A43BB6813437A6913437B61EA
:1030FC00FB687A699A6000BF1C37BD4680BC70477C
:10310C0080B485B000AF786039607B6893F83C3050
:10311C00012B01D1022341E07B68012283F83C2082
:10312C007B68022283F83D207B681B685B68FB6030
:10313C007B681B689B68BB60FB6823F07003FB60BB
:10314C003B681B68FA681343FB607B681B68FA6872
:10315C005A607B681B68144A934209D07B681B68D1
:10316C00B3F1804F04D07B681B68104A93420CD19A
:10317C00BB6823F08003BB603B685B68BA68134391
:10318C00BB607B681B68BA689A607B68012283F815
:10319C003D207B68002283F83C200023184614371E
:1031AC00BD4680BC704700BF002C014000040040AD
:1031BC0080B483B000AF786000BF0C37BD4680BCD4
:1031CC00704780B483B000AF786000BF0C37BD4649
:1031DC0080BC704770B500260C4D0D4C641BA410C0
:1031EC00A64209D100F022F800260A4D0A4C641BB5
:1031FC00A410A64205D170BD55F8043B9847013682
:10320C00EEE755F8043B98470136F2E774320008B4
:10321C007432000874320008783200080346024405
:10322C00934200D1704703F8011BF9E7F8B500BFD2
:10323C00F8BC08BC9E467047F8B500BFF8BC08BC8B
:04324C009E467047E3
:103250000000000000000000010203040607080946
:1032600002030405060708090A0B0C0D0E0F1010C7
:043270000102000057
:04327400310100081C
:043278000D0100083C
:10327C00010000000100000001000000010000003E
:10328C00010000000100000001000000010000002E
:10329C00010000000100000001000000010000001E
:1032AC0064000000640000006400000005000000E1
:1032BC00030000000200000000127A001000000061
:0432CC0001000000FD
:0400000508001BC113
:00000001FF
